{
  "_format": "hh-sol-artifact-1",
  "contractName": "DTC",
  "sourceName": "contracts/Token.sol",
  "abi": [
    {
      "inputs": [
        {
          "internalType": "address",
          "name": "minter",
          "type": "address"
        }
      ],
      "stateMutability": "nonpayable",
      "type": "constructor"
    },
    {
      "inputs": [],
      "name": "AccessControlBadConfirmation",
      "type": "error"
    },
    {
      "inputs": [
        {
          "internalType": "address",
          "name": "account",
          "type": "address"
        },
        {
          "internalType": "bytes32",
          "name": "neededRole",
          "type": "bytes32"
        }
      ],
      "name": "AccessControlUnauthorizedAccount",
      "type": "error"
    },
    {
      "inputs": [],
      "name": "ERC721EnumerableForbiddenBatchMint",
      "type": "error"
    },
    {
      "inputs": [
        {
          "internalType": "address",
          "name": "sender",
          "type": "address"
        },
        {
          "internalType": "uint256",
          "name": "tokenId",
          "type": "uint256"
        },
        {
          "internalType": "address",
          "name": "owner",
          "type": "address"
        }
      ],
      "name": "ERC721IncorrectOwner",
      "type": "error"
    },
    {
      "inputs": [
        {
          "internalType": "address",
          "name": "operator",
          "type": "address"
        },
        {
          "internalType": "uint256",
          "name": "tokenId",
          "type": "uint256"
        }
      ],
      "name": "ERC721InsufficientApproval",
      "type": "error"
    },
    {
      "inputs": [
        {
          "internalType": "address",
          "name": "approver",
          "type": "address"
        }
      ],
      "name": "ERC721InvalidApprover",
      "type": "error"
    },
    {
      "inputs": [
        {
          "internalType": "address",
          "name": "operator",
          "type": "address"
        }
      ],
      "name": "ERC721InvalidOperator",
      "type": "error"
    },
    {
      "inputs": [
        {
          "internalType": "address",
          "name": "owner",
          "type": "address"
        }
      ],
      "name": "ERC721InvalidOwner",
      "type": "error"
    },
    {
      "inputs": [
        {
          "internalType": "address",
          "name": "receiver",
          "type": "address"
        }
      ],
      "name": "ERC721InvalidReceiver",
      "type": "error"
    },
    {
      "inputs": [
        {
          "internalType": "address",
          "name": "sender",
          "type": "address"
        }
      ],
      "name": "ERC721InvalidSender",
      "type": "error"
    },
    {
      "inputs": [
        {
          "internalType": "uint256",
          "name": "tokenId",
          "type": "uint256"
        }
      ],
      "name": "ERC721NonexistentToken",
      "type": "error"
    },
    {
      "inputs": [
        {
          "internalType": "address",
          "name": "owner",
          "type": "address"
        },
        {
          "internalType": "uint256",
          "name": "index",
          "type": "uint256"
        }
      ],
      "name": "ERC721OutOfBoundsIndex",
      "type": "error"
    },
    {
      "inputs": [
        {
          "internalType": "address",
          "name": "owner",
          "type": "address"
        }
      ],
      "name": "OwnableInvalidOwner",
      "type": "error"
    },
    {
      "inputs": [
        {
          "internalType": "address",
          "name": "account",
          "type": "address"
        }
      ],
      "name": "OwnableUnauthorizedAccount",
      "type": "error"
    },
    {
      "anonymous": false,
      "inputs": [
        {
          "indexed": true,
          "internalType": "address",
          "name": "owner",
          "type": "address"
        },
        {
          "indexed": true,
          "internalType": "address",
          "name": "approved",
          "type": "address"
        },
        {
          "indexed": true,
          "internalType": "uint256",
          "name": "tokenId",
          "type": "uint256"
        }
      ],
      "name": "Approval",
      "type": "event"
    },
    {
      "anonymous": false,
      "inputs": [
        {
          "indexed": true,
          "internalType": "address",
          "name": "owner",
          "type": "address"
        },
        {
          "indexed": true,
          "internalType": "address",
          "name": "operator",
          "type": "address"
        },
        {
          "indexed": false,
          "internalType": "bool",
          "name": "approved",
          "type": "bool"
        }
      ],
      "name": "ApprovalForAll",
      "type": "event"
    },
    {
      "anonymous": false,
      "inputs": [
        {
          "indexed": false,
          "internalType": "address",
          "name": "to",
          "type": "address"
        },
        {
          "indexed": false,
          "internalType": "uint256",
          "name": "token_type",
          "type": "uint256"
        },
        {
          "indexed": false,
          "internalType": "uint256",
          "name": "token_id",
          "type": "uint256"
        }
      ],
      "name": "Mint",
      "type": "event"
    },
    {
      "anonymous": false,
      "inputs": [
        {
          "indexed": true,
          "internalType": "address",
          "name": "previousOwner",
          "type": "address"
        },
        {
          "indexed": true,
          "internalType": "address",
          "name": "newOwner",
          "type": "address"
        }
      ],
      "name": "OwnershipTransferred",
      "type": "event"
    },
    {
      "anonymous": false,
      "inputs": [
        {
          "indexed": true,
          "internalType": "bytes32",
          "name": "role",
          "type": "bytes32"
        },
        {
          "indexed": true,
          "internalType": "bytes32",
          "name": "previousAdminRole",
          "type": "bytes32"
        },
        {
          "indexed": true,
          "internalType": "bytes32",
          "name": "newAdminRole",
          "type": "bytes32"
        }
      ],
      "name": "RoleAdminChanged",
      "type": "event"
    },
    {
      "anonymous": false,
      "inputs": [
        {
          "indexed": true,
          "internalType": "bytes32",
          "name": "role",
          "type": "bytes32"
        },
        {
          "indexed": true,
          "internalType": "address",
          "name": "account",
          "type": "address"
        },
        {
          "indexed": true,
          "internalType": "address",
          "name": "sender",
          "type": "address"
        }
      ],
      "name": "RoleGranted",
      "type": "event"
    },
    {
      "anonymous": false,
      "inputs": [
        {
          "indexed": true,
          "internalType": "bytes32",
          "name": "role",
          "type": "bytes32"
        },
        {
          "indexed": true,
          "internalType": "address",
          "name": "account",
          "type": "address"
        },
        {
          "indexed": true,
          "internalType": "address",
          "name": "sender",
          "type": "address"
        }
      ],
      "name": "RoleRevoked",
      "type": "event"
    },
    {
      "anonymous": false,
      "inputs": [
        {
          "indexed": true,
          "internalType": "address",
          "name": "from",
          "type": "address"
        },
        {
          "indexed": true,
          "internalType": "address",
          "name": "to",
          "type": "address"
        },
        {
          "indexed": true,
          "internalType": "uint256",
          "name": "tokenId",
          "type": "uint256"
        }
      ],
      "name": "Transfer",
      "type": "event"
    },
    {
      "inputs": [],
      "name": "DEFAULT_ADMIN_ROLE",
      "outputs": [
        {
          "internalType": "bytes32",
          "name": "",
          "type": "bytes32"
        }
      ],
      "stateMutability": "view",
      "type": "function"
    },
    {
      "inputs": [],
      "name": "MINTER_ROLE",
      "outputs": [
        {
          "internalType": "bytes32",
          "name": "",
          "type": "bytes32"
        }
      ],
      "stateMutability": "view",
      "type": "function"
    },
    {
      "inputs": [
        {
          "internalType": "address",
          "name": "to",
          "type": "address"
        },
        {
          "internalType": "uint256",
          "name": "tokenId",
          "type": "uint256"
        }
      ],
      "name": "approve",
      "outputs": [],
      "stateMutability": "nonpayable",
      "type": "function"
    },
    {
      "inputs": [
        {
          "internalType": "address",
          "name": "owner",
          "type": "address"
        }
      ],
      "name": "balanceOf",
      "outputs": [
        {
          "internalType": "uint256",
          "name": "",
          "type": "uint256"
        }
      ],
      "stateMutability": "view",
      "type": "function"
    },
    {
      "inputs": [
        {
          "internalType": "uint256",
          "name": "tokenId",
          "type": "uint256"
        }
      ],
      "name": "getApproved",
      "outputs": [
        {
          "internalType": "address",
          "name": "",
          "type": "address"
        }
      ],
      "stateMutability": "view",
      "type": "function"
    },
    {
      "inputs": [
        {
          "internalType": "bytes32",
          "name": "role",
          "type": "bytes32"
        }
      ],
      "name": "getRoleAdmin",
      "outputs": [
        {
          "internalType": "bytes32",
          "name": "",
          "type": "bytes32"
        }
      ],
      "stateMutability": "view",
      "type": "function"
    },
    {
      "inputs": [
        {
          "internalType": "bytes32",
          "name": "role",
          "type": "bytes32"
        },
        {
          "internalType": "uint256",
          "name": "index",
          "type": "uint256"
        }
      ],
      "name": "getRoleMember",
      "outputs": [
        {
          "internalType": "address",
          "name": "",
          "type": "address"
        }
      ],
      "stateMutability": "view",
      "type": "function"
    },
    {
      "inputs": [
        {
          "internalType": "bytes32",
          "name": "role",
          "type": "bytes32"
        }
      ],
      "name": "getRoleMemberCount",
      "outputs": [
        {
          "internalType": "uint256",
          "name": "",
          "type": "uint256"
        }
      ],
      "stateMutability": "view",
      "type": "function"
    },
    {
      "inputs": [
        {
          "internalType": "bytes32",
          "name": "role",
          "type": "bytes32"
        },
        {
          "internalType": "address",
          "name": "account",
          "type": "address"
        }
      ],
      "name": "grantRole",
      "outputs": [],
      "stateMutability": "nonpayable",
      "type": "function"
    },
    {
      "inputs": [
        {
          "internalType": "bytes32",
          "name": "role",
          "type": "bytes32"
        },
        {
          "internalType": "address",
          "name": "account",
          "type": "address"
        }
      ],
      "name": "hasRole",
      "outputs": [
        {
          "internalType": "bool",
          "name": "",
          "type": "bool"
        }
      ],
      "stateMutability": "view",
      "type": "function"
    },
    {
      "inputs": [
        {
          "internalType": "address",
          "name": "owner",
          "type": "address"
        },
        {
          "internalType": "address",
          "name": "operator",
          "type": "address"
        }
      ],
      "name": "isApprovedForAll",
      "outputs": [
        {
          "internalType": "bool",
          "name": "",
          "type": "bool"
        }
      ],
      "stateMutability": "view",
      "type": "function"
    },
    {
      "inputs": [
        {
          "internalType": "address",
          "name": "to",
          "type": "address"
        },
        {
          "internalType": "uint256",
          "name": "hero_type",
          "type": "uint256"
        }
      ],
      "name": "mint",
      "outputs": [
        {
          "internalType": "uint256",
          "name": "",
          "type": "uint256"
        }
      ],
      "stateMutability": "nonpayable",
      "type": "function"
    },
    {
      "inputs": [],
      "name": "name",
      "outputs": [
        {
          "internalType": "string",
          "name": "",
          "type": "string"
        }
      ],
      "stateMutability": "view",
      "type": "function"
    },
    {
      "inputs": [],
      "name": "owner",
      "outputs": [
        {
          "internalType": "address",
          "name": "",
          "type": "address"
        }
      ],
      "stateMutability": "view",
      "type": "function"
    },
    {
      "inputs": [
        {
          "internalType": "uint256",
          "name": "tokenId",
          "type": "uint256"
        }
      ],
      "name": "ownerOf",
      "outputs": [
        {
          "internalType": "address",
          "name": "",
          "type": "address"
        }
      ],
      "stateMutability": "view",
      "type": "function"
    },
    {
      "inputs": [],
      "name": "renounceOwnership",
      "outputs": [],
      "stateMutability": "nonpayable",
      "type": "function"
    },
    {
      "inputs": [
        {
          "internalType": "bytes32",
          "name": "role",
          "type": "bytes32"
        },
        {
          "internalType": "address",
          "name": "callerConfirmation",
          "type": "address"
        }
      ],
      "name": "renounceRole",
      "outputs": [],
      "stateMutability": "nonpayable",
      "type": "function"
    },
    {
      "inputs": [
        {
          "internalType": "bytes32",
          "name": "role",
          "type": "bytes32"
        },
        {
          "internalType": "address",
          "name": "account",
          "type": "address"
        }
      ],
      "name": "revokeRole",
      "outputs": [],
      "stateMutability": "nonpayable",
      "type": "function"
    },
    {
      "inputs": [
        {
          "internalType": "address",
          "name": "from",
          "type": "address"
        },
        {
          "internalType": "address",
          "name": "to",
          "type": "address"
        },
        {
          "internalType": "uint256",
          "name": "tokenId",
          "type": "uint256"
        }
      ],
      "name": "safeTransferFrom",
      "outputs": [],
      "stateMutability": "nonpayable",
      "type": "function"
    },
    {
      "inputs": [
        {
          "internalType": "address",
          "name": "from",
          "type": "address"
        },
        {
          "internalType": "address",
          "name": "to",
          "type": "address"
        },
        {
          "internalType": "uint256",
          "name": "tokenId",
          "type": "uint256"
        },
        {
          "internalType": "bytes",
          "name": "data",
          "type": "bytes"
        }
      ],
      "name": "safeTransferFrom",
      "outputs": [],
      "stateMutability": "nonpayable",
      "type": "function"
    },
    {
      "inputs": [
        {
          "internalType": "address",
          "name": "operator",
          "type": "address"
        },
        {
          "internalType": "bool",
          "name": "approved",
          "type": "bool"
        }
      ],
      "name": "setApprovalForAll",
      "outputs": [],
      "stateMutability": "nonpayable",
      "type": "function"
    },
    {
      "inputs": [
        {
          "internalType": "bytes4",
          "name": "interfaceId",
          "type": "bytes4"
        }
      ],
      "name": "supportsInterface",
      "outputs": [
        {
          "internalType": "bool",
          "name": "",
          "type": "bool"
        }
      ],
      "stateMutability": "view",
      "type": "function"
    },
    {
      "inputs": [],
      "name": "symbol",
      "outputs": [
        {
          "internalType": "string",
          "name": "",
          "type": "string"
        }
      ],
      "stateMutability": "view",
      "type": "function"
    },
    {
      "inputs": [
        {
          "internalType": "uint256",
          "name": "index",
          "type": "uint256"
        }
      ],
      "name": "tokenByIndex",
      "outputs": [
        {
          "internalType": "uint256",
          "name": "",
          "type": "uint256"
        }
      ],
      "stateMutability": "view",
      "type": "function"
    },
    {
      "inputs": [
        {
          "internalType": "address",
          "name": "owner",
          "type": "address"
        },
        {
          "internalType": "uint256",
          "name": "index",
          "type": "uint256"
        }
      ],
      "name": "tokenOfOwnerByIndex",
      "outputs": [
        {
          "internalType": "uint256",
          "name": "",
          "type": "uint256"
        }
      ],
      "stateMutability": "view",
      "type": "function"
    },
    {
      "inputs": [
        {
          "internalType": "uint256",
          "name": "tokenId",
          "type": "uint256"
        }
      ],
      "name": "tokenURI",
      "outputs": [
        {
          "internalType": "string",
          "name": "",
          "type": "string"
        }
      ],
      "stateMutability": "view",
      "type": "function"
    },
    {
      "inputs": [],
      "name": "totalSupply",
      "outputs": [
        {
          "internalType": "uint256",
          "name": "",
          "type": "uint256"
        }
      ],
      "stateMutability": "view",
      "type": "function"
    },
    {
      "inputs": [
        {
          "internalType": "address",
          "name": "from",
          "type": "address"
        },
        {
          "internalType": "address",
          "name": "to",
          "type": "address"
        },
        {
          "internalType": "uint256",
          "name": "tokenId",
          "type": "uint256"
        }
      ],
      "name": "transferFrom",
      "outputs": [],
      "stateMutability": "nonpayable",
      "type": "function"
    },
    {
      "inputs": [
        {
          "internalType": "address",
          "name": "newOwner",
          "type": "address"
        }
      ],
      "name": "transferOwnership",
      "outputs": [],
      "stateMutability": "nonpayable",
      "type": "function"
    }
  ],
  "bytecode": "0x60806040523480156200001157600080fd5b5060405162003db938038062003db983398181016040528101906200003791906200053b565b806040518060400160405280600c81526020017f44757374696e20546f6b656e00000000000000000000000000000000000000008152506040518060400160405280600681526020017f44757374696e00000000000000000000000000000000000000000000000000008152508160009081620000b59190620007e7565b508060019081620000c79190620007e7565b505050600073ffffffffffffffffffffffffffffffffffffffff168173ffffffffffffffffffffffffffffffffffffffff16036200013f5760006040517f1e4fbdf7000000000000000000000000000000000000000000000000000000008152600401620001369190620008df565b60405180910390fd5b62000150816200016e60201b60201c565b50620001666000801b826200023460201b60201c565b5050620008fc565b6000600a60009054906101000a900473ffffffffffffffffffffffffffffffffffffffff16905081600a60006101000a81548173ffffffffffffffffffffffffffffffffffffffff021916908373ffffffffffffffffffffffffffffffffffffffff1602179055508173ffffffffffffffffffffffffffffffffffffffff168173ffffffffffffffffffffffffffffffffffffffff167f8be0079c531659141344cd1fd0a4f28419497f9722a3daafe3b4186f6b6457e060405160405180910390a35050565b6000806200024984846200028560201b60201c565b905080156200027b576200027983600c60008781526020019081526020016000206200038960201b90919060201c565b505b8091505092915050565b6000620002998383620003c160201b60201c565b6200037e576001600b600085815260200190815260200160002060000160008473ffffffffffffffffffffffffffffffffffffffff1673ffffffffffffffffffffffffffffffffffffffff16815260200190815260200160002060006101000a81548160ff0219169083151502179055506200031a6200042c60201b60201c565b73ffffffffffffffffffffffffffffffffffffffff168273ffffffffffffffffffffffffffffffffffffffff16847f2f8788117e7eff1d82e926ec794901d17c78024a50270940304540a733656f0d60405160405180910390a46001905062000383565b600090505b92915050565b6000620003b9836000018373ffffffffffffffffffffffffffffffffffffffff1660001b6200043460201b60201c565b905092915050565b6000600b600084815260200190815260200160002060000160008373ffffffffffffffffffffffffffffffffffffffff1673ffffffffffffffffffffffffffffffffffffffff16815260200190815260200160002060009054906101000a900460ff16905092915050565b600033905090565b6000620004488383620004ae60201b60201c565b620004a3578260000182908060018154018082558091505060019003906000526020600020016000909190919091505582600001805490508360010160008481526020019081526020016000208190555060019050620004a8565b600090505b92915050565b600080836001016000848152602001908152602001600020541415905092915050565b600080fd5b600073ffffffffffffffffffffffffffffffffffffffff82169050919050565b60006200050382620004d6565b9050919050565b6200051581620004f6565b81146200052157600080fd5b50565b60008151905062000535816200050a565b92915050565b600060208284031215620005545762000553620004d1565b5b6000620005648482850162000524565b91505092915050565b600081519050919050565b7f4e487b7100000000000000000000000000000000000000000000000000000000600052604160045260246000fd5b7f4e487b7100000000000000000000000000000000000000000000000000000000600052602260045260246000fd5b60006002820490506001821680620005ef57607f821691505b602082108103620006055762000604620005a7565b5b50919050565b60008190508160005260206000209050919050565b60006020601f8301049050919050565b600082821b905092915050565b6000600883026200066f7fffffffffffffffffffffffffffffffffffffffffffffffffffffffffffffffff8262000630565b6200067b868362000630565b95508019841693508086168417925050509392505050565b6000819050919050565b6000819050919050565b6000620006c8620006c2620006bc8462000693565b6200069d565b62000693565b9050919050565b6000819050919050565b620006e483620006a7565b620006fc620006f382620006cf565b8484546200063d565b825550505050565b600090565b6200071362000704565b62000720818484620006d9565b505050565b5b8181101562000748576200073c60008262000709565b60018101905062000726565b5050565b601f821115620007975762000761816200060b565b6200076c8462000620565b810160208510156200077c578190505b620007946200078b8562000620565b83018262000725565b50505b505050565b600082821c905092915050565b6000620007bc600019846008026200079c565b1980831691505092915050565b6000620007d78383620007a9565b9150826002028217905092915050565b620007f2826200056d565b67ffffffffffffffff8111156200080e576200080d62000578565b5b6200081a8254620005d6565b620008278282856200074c565b600060209050601f8311600181146200085f57600084156200084a578287015190505b620008568582620007c9565b865550620008c6565b601f1984166200086f866200060b565b60005b82811015620008995784890151825560018201915060208501945060208101905062000872565b86831015620008b95784890151620008b5601f891682620007a9565b8355505b6001600288020188555050505b505050505050565b620008d981620004f6565b82525050565b6000602082019050620008f66000830184620008ce565b92915050565b6134ad806200090c6000396000f3fe608060405234801561001057600080fd5b50600436106101cf5760003560e01c806370a0823111610104578063a22cb465116100a2578063d539139311610071578063d539139314610578578063d547741f14610596578063e985e9c5146105b2578063f2fde38b146105e2576101cf565b8063a22cb465146104e0578063b88d4fde146104fc578063c87b56dd14610518578063ca15c87314610548576101cf565b80639010d07c116100de5780639010d07c1461044457806391d148541461047457806395d89b41146104a4578063a217fddf146104c2576101cf565b806370a08231146103ec578063715018a61461041c5780638da5cb5b14610426576101cf565b80632f2ff15d1161017157806340c10f191161014b57806340c10f191461034057806342842e0e146103705780634f6ccce71461038c5780636352211e146103bc576101cf565b80632f2ff15d146102d85780632f745c59146102f457806336568abe14610324576101cf565b8063095ea7b3116101ad578063095ea7b31461025257806318160ddd1461026e57806323b872dd1461028c578063248a9ca3146102a8576101cf565b806301ffc9a7146101d457806306fdde0314610204578063081812fc14610222575b600080fd5b6101ee60048036038101906101e99190612a15565b6105fe565b6040516101fb9190612a5d565b60405180910390f35b61020c610610565b6040516102199190612b08565b60405180910390f35b61023c60048036038101906102379190612b60565b6106a2565b6040516102499190612bce565b60405180910390f35b61026c60048036038101906102679190612c15565b6106be565b005b6102766106d4565b6040516102839190612c64565b60405180910390f35b6102a660048036038101906102a19190612c7f565b6106e1565b005b6102c260048036038101906102bd9190612d08565b6107e3565b6040516102cf9190612d44565b60405180910390f35b6102f260048036038101906102ed9190612d5f565b610803565b005b61030e60048036038101906103099190612c15565b610825565b60405161031b9190612c64565b60405180910390f35b61033e60048036038101906103399190612d5f565b6108ce565b005b61035a60048036038101906103559190612c15565b610949565b6040516103679190612c64565b60405180910390f35b61038a60048036038101906103859190612c7f565b610a6d565b005b6103a660048036038101906103a19190612b60565b610a8d565b6040516103b39190612c64565b60405180910390f35b6103d660048036038101906103d19190612b60565b610b03565b6040516103e39190612bce565b60405180910390f35b61040660048036038101906104019190612d9f565b610b15565b6040516104139190612c64565b60405180910390f35b610424610bcf565b005b61042e610be3565b60405161043b9190612bce565b60405180910390f35b61045e60048036038101906104599190612dcc565b610c0d565b60405161046b9190612bce565b60405180910390f35b61048e60048036038101906104899190612d5f565b610c3c565b60405161049b9190612a5d565b60405180910390f35b6104ac610ca7565b6040516104b99190612b08565b60405180910390f35b6104ca610d39565b6040516104d79190612d44565b60405180910390f35b6104fa60048036038101906104f59190612e38565b610d40565b005b61051660048036038101906105119190612fad565b610d56565b005b610532600480360381019061052d9190612b60565b610d73565b60405161053f9190612b08565b60405180910390f35b610562600480360381019061055d9190612d08565b610ddc565b60405161056f9190612c64565b60405180910390f35b610580610e00565b60405161058d9190612d44565b60405180910390f35b6105b060048036038101906105ab9190612d5f565b610e24565b005b6105cc60048036038101906105c79190613030565b610e46565b6040516105d99190612a5d565b60405180910390f35b6105fc60048036038101906105f79190612d9f565b610eda565b005b600061060982610f60565b9050919050565b60606000805461061f9061309f565b80601f016020809104026020016040519081016040528092919081815260200182805461064b9061309f565b80156106985780601f1061066d57610100808354040283529160200191610698565b820191906000526020600020905b81548152906001019060200180831161067b57829003601f168201915b5050505050905090565b60006106ad82610fda565b506106b782611062565b9050919050565b6106d082826106cb61109f565b6110a7565b5050565b6000600880549050905090565b600073ffffffffffffffffffffffffffffffffffffffff168273ffffffffffffffffffffffffffffffffffffffff16036107535760006040517f64a0ae9200000000000000000000000000000000000000000000000000000000815260040161074a9190612bce565b60405180910390fd5b6000610767838361076261109f565b6110b9565b90508373ffffffffffffffffffffffffffffffffffffffff168173ffffffffffffffffffffffffffffffffffffffff16146107dd578382826040517f64283d7b0000000000000000000000000000000000000000000000000000000081526004016107d4939291906130d0565b60405180910390fd5b50505050565b6000600b6000838152602001908152602001600020600101549050919050565b61080c826107e3565b610815816111d6565b61081f83836111ea565b50505050565b600061083083610b15565b82106108755782826040517fa57d13dc00000000000000000000000000000000000000000000000000000000815260040161086c929190613107565b60405180910390fd5b600660008473ffffffffffffffffffffffffffffffffffffffff1673ffffffffffffffffffffffffffffffffffffffff168152602001908152602001600020600083815260200190815260200160002054905092915050565b6108d661109f565b73ffffffffffffffffffffffffffffffffffffffff168173ffffffffffffffffffffffffffffffffffffffff161461093a576040517f6697b23200000000000000000000000000000000000000000000000000000000815260040160405180910390fd5b6109448282611230565b505050565b600061095361109f565b73ffffffffffffffffffffffffffffffffffffffff16610971610be3565b73ffffffffffffffffffffffffffffffffffffffff1614806109c057506109bf7f9f2df0fed2c77648de5860a4cc508cd0818c85b8b8a1ab4ceeef8d981c8956a66109ba61109f565b610c3c565b5b6109ff576040517f08c379a00000000000000000000000000000000000000000000000000000000081526004016109f69061317c565b60405180910390fd5b600d6000815480929190610a12906131cb565b91905055506000600d549050610a288482611276565b7f4c209b5fc8ad50758f13e2e1088ba56a560dff690a1c6fef26394f4c03821c4f848483604051610a5b93929190613213565b60405180910390a18091505092915050565b610a8883838360405180602001604052806000815250610d56565b505050565b6000610a976106d4565b8210610add576000826040517fa57d13dc000000000000000000000000000000000000000000000000000000008152600401610ad4929190613107565b60405180910390fd5b60088281548110610af157610af061324a565b5b90600052602060002001549050919050565b6000610b0e82610fda565b9050919050565b60008073ffffffffffffffffffffffffffffffffffffffff168273ffffffffffffffffffffffffffffffffffffffff1603610b885760006040517f89c62b64000000000000000000000000000000000000000000000000000000008152600401610b7f9190612bce565b60405180910390fd5b600360008373ffffffffffffffffffffffffffffffffffffffff1673ffffffffffffffffffffffffffffffffffffffff168152602001908152602001600020549050919050565b610bd761136f565b610be160006113f6565b565b6000600a60009054906101000a900473ffffffffffffffffffffffffffffffffffffffff16905090565b6000610c3482600c60008681526020019081526020016000206114bc90919063ffffffff16565b905092915050565b6000600b600084815260200190815260200160002060000160008373ffffffffffffffffffffffffffffffffffffffff1673ffffffffffffffffffffffffffffffffffffffff16815260200190815260200160002060009054906101000a900460ff16905092915050565b606060018054610cb69061309f565b80601f0160208091040260200160405190810160405280929190818152602001828054610ce29061309f565b8015610d2f5780601f10610d0457610100808354040283529160200191610d2f565b820191906000526020600020905b815481529060010190602001808311610d1257829003601f168201915b5050505050905090565b6000801b81565b610d52610d4b61109f565b83836114d6565b5050565b610d618484846106e1565b610d6d84848484611645565b50505050565b6060610d7e82610fda565b506000610d896117fc565b90506000815111610da95760405180602001604052806000815250610dd4565b80610db384611813565b604051602001610dc49291906132b5565b6040516020818303038152906040525b915050919050565b6000610df9600c60008481526020019081526020016000206118e1565b9050919050565b7f9f2df0fed2c77648de5860a4cc508cd0818c85b8b8a1ab4ceeef8d981c8956a681565b610e2d826107e3565b610e36816111d6565b610e408383611230565b50505050565b6000600560008473ffffffffffffffffffffffffffffffffffffffff1673ffffffffffffffffffffffffffffffffffffffff16815260200190815260200160002060008373ffffffffffffffffffffffffffffffffffffffff1673ffffffffffffffffffffffffffffffffffffffff16815260200190815260200160002060009054906101000a900460ff16905092915050565b610ee261136f565b600073ffffffffffffffffffffffffffffffffffffffff168173ffffffffffffffffffffffffffffffffffffffff1603610f545760006040517f1e4fbdf7000000000000000000000000000000000000000000000000000000008152600401610f4b9190612bce565b60405180910390fd5b610f5d816113f6565b50565b60007f5a05180f000000000000000000000000000000000000000000000000000000007bffffffffffffffffffffffffffffffffffffffffffffffffffffffff1916827bffffffffffffffffffffffffffffffffffffffffffffffffffffffff19161480610fd35750610fd2826118f6565b5b9050919050565b600080610fe683611970565b9050600073ffffffffffffffffffffffffffffffffffffffff168173ffffffffffffffffffffffffffffffffffffffff160361105957826040517f7e2732890000000000000000000000000000000000000000000000000000000081526004016110509190612c64565b60405180910390fd5b80915050919050565b60006004600083815260200190815260200160002060009054906101000a900473ffffffffffffffffffffffffffffffffffffffff169050919050565b600033905090565b6110b483838360016119ad565b505050565b6000806110c7858585611b72565b9050600073ffffffffffffffffffffffffffffffffffffffff168173ffffffffffffffffffffffffffffffffffffffff160361110b5761110684611d8c565b61114a565b8473ffffffffffffffffffffffffffffffffffffffff168173ffffffffffffffffffffffffffffffffffffffff1614611149576111488185611dd5565b5b5b600073ffffffffffffffffffffffffffffffffffffffff168573ffffffffffffffffffffffffffffffffffffffff160361118c5761118784611f36565b6111cb565b8473ffffffffffffffffffffffffffffffffffffffff168173ffffffffffffffffffffffffffffffffffffffff16146111ca576111c98585612007565b5b5b809150509392505050565b6111e7816111e261109f565b612092565b50565b6000806111f784846120e3565b905080156112265761122483600c60008781526020019081526020016000206121d590919063ffffffff16565b505b8091505092915050565b60008061123d8484612205565b9050801561126c5761126a83600c60008781526020019081526020016000206122f890919063ffffffff16565b505b8091505092915050565b600073ffffffffffffffffffffffffffffffffffffffff168273ffffffffffffffffffffffffffffffffffffffff16036112e85760006040517f64a0ae920000000000000000000000000000000000000000000000000000000081526004016112df9190612bce565b60405180910390fd5b60006112f6838360006110b9565b9050600073ffffffffffffffffffffffffffffffffffffffff168173ffffffffffffffffffffffffffffffffffffffff161461136a5760006040517f73c6ac6e0000000000000000000000000000000000000000000000000000000081526004016113619190612bce565b60405180910390fd5b505050565b61137761109f565b73ffffffffffffffffffffffffffffffffffffffff16611395610be3565b73ffffffffffffffffffffffffffffffffffffffff16146113f4576113b861109f565b6040517f118cdaa70000000000000000000000000000000000000000000000000000000081526004016113eb9190612bce565b60405180910390fd5b565b6000600a60009054906101000a900473ffffffffffffffffffffffffffffffffffffffff16905081600a60006101000a81548173ffffffffffffffffffffffffffffffffffffffff021916908373ffffffffffffffffffffffffffffffffffffffff1602179055508173ffffffffffffffffffffffffffffffffffffffff168173ffffffffffffffffffffffffffffffffffffffff167f8be0079c531659141344cd1fd0a4f28419497f9722a3daafe3b4186f6b6457e060405160405180910390a35050565b60006114cb8360000183612328565b60001c905092915050565b600073ffffffffffffffffffffffffffffffffffffffff168273ffffffffffffffffffffffffffffffffffffffff160361154757816040517f5b08ba1800000000000000000000000000000000000000000000000000000000815260040161153e9190612bce565b60405180910390fd5b80600560008573ffffffffffffffffffffffffffffffffffffffff1673ffffffffffffffffffffffffffffffffffffffff16815260200190815260200160002060008473ffffffffffffffffffffffffffffffffffffffff1673ffffffffffffffffffffffffffffffffffffffff16815260200190815260200160002060006101000a81548160ff0219169083151502179055508173ffffffffffffffffffffffffffffffffffffffff168373ffffffffffffffffffffffffffffffffffffffff167f17307eab39ab6107e8899845ad3d59bd9653f200f220920489ca2b5937696c31836040516116389190612a5d565b60405180910390a3505050565b60008373ffffffffffffffffffffffffffffffffffffffff163b11156117f6578273ffffffffffffffffffffffffffffffffffffffff1663150b7a0261168961109f565b8685856040518563ffffffff1660e01b81526004016116ab949392919061332e565b6020604051808303816000875af19250505080156116e757506040513d601f19601f820116820180604052508101906116e4919061338f565b60015b61176b573d8060008114611717576040519150601f19603f3d011682016040523d82523d6000602084013e61171c565b606091505b50600081510361176357836040517f64a0ae9200000000000000000000000000000000000000000000000000000000815260040161175a9190612bce565b60405180910390fd5b805181602001fd5b63150b7a0260e01b7bffffffffffffffffffffffffffffffffffffffffffffffffffffffff1916817bffffffffffffffffffffffffffffffffffffffffffffffffffffffff1916146117f457836040517f64a0ae920000000000000000000000000000000000000000000000000000000081526004016117eb9190612bce565b60405180910390fd5b505b50505050565b606060405180602001604052806000815250905090565b60606000600161182284612353565b01905060008167ffffffffffffffff81111561184157611840612e82565b5b6040519080825280601f01601f1916602001820160405280156118735781602001600182028036833780820191505090505b509050600082602001820190505b6001156118d6578080600190039150507f3031323334353637383961626364656600000000000000000000000000000000600a86061a8153600a85816118ca576118c96133bc565b5b04945060008503611881575b819350505050919050565b60006118ef826000016124a6565b9050919050565b60007f7965db0b000000000000000000000000000000000000000000000000000000007bffffffffffffffffffffffffffffffffffffffffffffffffffffffff1916827bffffffffffffffffffffffffffffffffffffffffffffffffffffffff191614806119695750611968826124b7565b5b9050919050565b60006002600083815260200190815260200160002060009054906101000a900473ffffffffffffffffffffffffffffffffffffffff169050919050565b80806119e65750600073ffffffffffffffffffffffffffffffffffffffff168273ffffffffffffffffffffffffffffffffffffffff1614155b15611b1a5760006119f684610fda565b9050600073ffffffffffffffffffffffffffffffffffffffff168373ffffffffffffffffffffffffffffffffffffffff1614158015611a6157508273ffffffffffffffffffffffffffffffffffffffff168173ffffffffffffffffffffffffffffffffffffffff1614155b8015611a745750611a728184610e46565b155b15611ab657826040517fa9fbf51f000000000000000000000000000000000000000000000000000000008152600401611aad9190612bce565b60405180910390fd5b8115611b1857838573ffffffffffffffffffffffffffffffffffffffff168273ffffffffffffffffffffffffffffffffffffffff167f8c5be1e5ebec7d5bd14f71427d1e84f3dd0314c0f7b2291e5b200ac8c7c3b92560405160405180910390a45b505b836004600085815260200190815260200160002060006101000a81548173ffffffffffffffffffffffffffffffffffffffff021916908373ffffffffffffffffffffffffffffffffffffffff16021790555050505050565b600080611b7e84611970565b9050600073ffffffffffffffffffffffffffffffffffffffff168373ffffffffffffffffffffffffffffffffffffffff1614611bc057611bbf818486612531565b5b600073ffffffffffffffffffffffffffffffffffffffff168173ffffffffffffffffffffffffffffffffffffffff1614611c5157611c026000856000806119ad565b6001600360008373ffffffffffffffffffffffffffffffffffffffff1673ffffffffffffffffffffffffffffffffffffffff168152602001908152602001600020600082825403925050819055505b600073ffffffffffffffffffffffffffffffffffffffff168573ffffffffffffffffffffffffffffffffffffffff1614611cd4576001600360008773ffffffffffffffffffffffffffffffffffffffff1673ffffffffffffffffffffffffffffffffffffffff168152602001908152602001600020600082825401925050819055505b846002600086815260200190815260200160002060006101000a81548173ffffffffffffffffffffffffffffffffffffffff021916908373ffffffffffffffffffffffffffffffffffffffff160217905550838573ffffffffffffffffffffffffffffffffffffffff168273ffffffffffffffffffffffffffffffffffffffff167fddf252ad1be2c89b69c2b068fc378daa952ba7f163c4a11628f55a4df523b3ef60405160405180910390a4809150509392505050565b6008805490506009600083815260200190815260200160002081905550600881908060018154018082558091505060019003906000526020600020016000909190919091505550565b6000611de083610b15565b9050600060076000848152602001908152602001600020549050818114611ec5576000600660008673ffffffffffffffffffffffffffffffffffffffff1673ffffffffffffffffffffffffffffffffffffffff168152602001908152602001600020600084815260200190815260200160002054905080600660008773ffffffffffffffffffffffffffffffffffffffff1673ffffffffffffffffffffffffffffffffffffffff168152602001908152602001600020600084815260200190815260200160002081905550816007600083815260200190815260200160002081905550505b6007600084815260200190815260200160002060009055600660008573ffffffffffffffffffffffffffffffffffffffff1673ffffffffffffffffffffffffffffffffffffffff16815260200190815260200160002060008381526020019081526020016000206000905550505050565b60006001600880549050611f4a91906133eb565b9050600060096000848152602001908152602001600020549050600060088381548110611f7a57611f7961324a565b5b906000526020600020015490508060088381548110611f9c57611f9b61324a565b5b906000526020600020018190555081600960008381526020019081526020016000208190555060096000858152602001908152602001600020600090556008805480611feb57611fea61341f565b5b6001900381819060005260206000200160009055905550505050565b6000600161201484610b15565b61201e91906133eb565b905081600660008573ffffffffffffffffffffffffffffffffffffffff1673ffffffffffffffffffffffffffffffffffffffff168152602001908152602001600020600083815260200190815260200160002081905550806007600084815260200190815260200160002081905550505050565b61209c8282610c3c565b6120df5780826040517fe2517d3f0000000000000000000000000000000000000000000000000000000081526004016120d692919061344e565b60405180910390fd5b5050565b60006120ef8383610c3c565b6121ca576001600b600085815260200190815260200160002060000160008473ffffffffffffffffffffffffffffffffffffffff1673ffffffffffffffffffffffffffffffffffffffff16815260200190815260200160002060006101000a81548160ff02191690831515021790555061216761109f565b73ffffffffffffffffffffffffffffffffffffffff168273ffffffffffffffffffffffffffffffffffffffff16847f2f8788117e7eff1d82e926ec794901d17c78024a50270940304540a733656f0d60405160405180910390a4600190506121cf565b600090505b92915050565b60006121fd836000018373ffffffffffffffffffffffffffffffffffffffff1660001b6125f5565b905092915050565b60006122118383610c3c565b156122ed576000600b600085815260200190815260200160002060000160008473ffffffffffffffffffffffffffffffffffffffff1673ffffffffffffffffffffffffffffffffffffffff16815260200190815260200160002060006101000a81548160ff02191690831515021790555061228a61109f565b73ffffffffffffffffffffffffffffffffffffffff168273ffffffffffffffffffffffffffffffffffffffff16847ff6391f5c32d9c69d2a47ea670b442974b53935d1edc7fd64eb21e047a839171b60405160405180910390a4600190506122f2565b600090505b92915050565b6000612320836000018373ffffffffffffffffffffffffffffffffffffffff1660001b612665565b905092915050565b60008260000182815481106123405761233f61324a565b5b9060005260206000200154905092915050565b600080600090507a184f03e93ff9f4daa797ed6e38ed64bf6a1f01000000000000000083106123b1577a184f03e93ff9f4daa797ed6e38ed64bf6a1f01000000000000000083816123a7576123a66133bc565b5b0492506040810190505b6d04ee2d6d415b85acef810000000083106123ee576d04ee2d6d415b85acef810000000083816123e4576123e36133bc565b5b0492506020810190505b662386f26fc10000831061241d57662386f26fc100008381612413576124126133bc565b5b0492506010810190505b6305f5e1008310612446576305f5e100838161243c5761243b6133bc565b5b0492506008810190505b612710831061246b576127108381612461576124606133bc565b5b0492506004810190505b6064831061248e5760648381612484576124836133bc565b5b0492506002810190505b600a831061249d576001810190505b80915050919050565b600081600001805490509050919050565b60007f780e9d63000000000000000000000000000000000000000000000000000000007bffffffffffffffffffffffffffffffffffffffffffffffffffffffff1916827bffffffffffffffffffffffffffffffffffffffffffffffffffffffff1916148061252a575061252982612779565b5b9050919050565b61253c83838361285b565b6125f057600073ffffffffffffffffffffffffffffffffffffffff168373ffffffffffffffffffffffffffffffffffffffff16036125b157806040517f7e2732890000000000000000000000000000000000000000000000000000000081526004016125a89190612c64565b60405180910390fd5b81816040517f177e802f0000000000000000000000000000000000000000000000000000000081526004016125e7929190613107565b60405180910390fd5b505050565b6000612601838361291c565b61265a57826000018290806001815401808255809150506001900390600052602060002001600090919091909150558260000180549050836001016000848152602001908152602001600020819055506001905061265f565b600090505b92915050565b6000808360010160008481526020019081526020016000205490506000811461276d57600060018261269791906133eb565b90506000600186600001805490506126af91906133eb565b905080821461271e5760008660000182815481106126d0576126cf61324a565b5b90600052602060002001549050808760000184815481106126f4576126f361324a565b5b90600052602060002001819055508387600101600083815260200190815260200160002081905550505b856000018054806127325761273161341f565b5b600190038181906000526020600020016000905590558560010160008681526020019081526020016000206000905560019350505050612773565b60009150505b92915050565b60007f80ac58cd000000000000000000000000000000000000000000000000000000007bffffffffffffffffffffffffffffffffffffffffffffffffffffffff1916827bffffffffffffffffffffffffffffffffffffffffffffffffffffffff1916148061284457507f5b5e139f000000000000000000000000000000000000000000000000000000007bffffffffffffffffffffffffffffffffffffffffffffffffffffffff1916827bffffffffffffffffffffffffffffffffffffffffffffffffffffffff1916145b8061285457506128538261293f565b5b9050919050565b60008073ffffffffffffffffffffffffffffffffffffffff168373ffffffffffffffffffffffffffffffffffffffff161415801561291357508273ffffffffffffffffffffffffffffffffffffffff168473ffffffffffffffffffffffffffffffffffffffff1614806128d457506128d38484610e46565b5b8061291257508273ffffffffffffffffffffffffffffffffffffffff166128fa83611062565b73ffffffffffffffffffffffffffffffffffffffff16145b5b90509392505050565b600080836001016000848152602001908152602001600020541415905092915050565b60007f01ffc9a7000000000000000000000000000000000000000000000000000000007bffffffffffffffffffffffffffffffffffffffffffffffffffffffff1916827bffffffffffffffffffffffffffffffffffffffffffffffffffffffff1916149050919050565b6000604051905090565b600080fd5b600080fd5b60007fffffffff0000000000000000000000000000000000000000000000000000000082169050919050565b6129f2816129bd565b81146129fd57600080fd5b50565b600081359050612a0f816129e9565b92915050565b600060208284031215612a2b57612a2a6129b3565b5b6000612a3984828501612a00565b91505092915050565b60008115159050919050565b612a5781612a42565b82525050565b6000602082019050612a726000830184612a4e565b92915050565b600081519050919050565b600082825260208201905092915050565b60005b83811015612ab2578082015181840152602081019050612a97565b60008484015250505050565b6000601f19601f8301169050919050565b6000612ada82612a78565b612ae48185612a83565b9350612af4818560208601612a94565b612afd81612abe565b840191505092915050565b60006020820190508181036000830152612b228184612acf565b905092915050565b6000819050919050565b612b3d81612b2a565b8114612b4857600080fd5b50565b600081359050612b5a81612b34565b92915050565b600060208284031215612b7657612b756129b3565b5b6000612b8484828501612b4b565b91505092915050565b600073ffffffffffffffffffffffffffffffffffffffff82169050919050565b6000612bb882612b8d565b9050919050565b612bc881612bad565b82525050565b6000602082019050612be36000830184612bbf565b92915050565b612bf281612bad565b8114612bfd57600080fd5b50565b600081359050612c0f81612be9565b92915050565b60008060408385031215612c2c57612c2b6129b3565b5b6000612c3a85828601612c00565b9250506020612c4b85828601612b4b565b9150509250929050565b612c5e81612b2a565b82525050565b6000602082019050612c796000830184612c55565b92915050565b600080600060608486031215612c9857612c976129b3565b5b6000612ca686828701612c00565b9350506020612cb786828701612c00565b9250506040612cc886828701612b4b565b9150509250925092565b6000819050919050565b612ce581612cd2565b8114612cf057600080fd5b50565b600081359050612d0281612cdc565b92915050565b600060208284031215612d1e57612d1d6129b3565b5b6000612d2c84828501612cf3565b91505092915050565b612d3e81612cd2565b82525050565b6000602082019050612d596000830184612d35565b92915050565b60008060408385031215612d7657612d756129b3565b5b6000612d8485828601612cf3565b9250506020612d9585828601612c00565b9150509250929050565b600060208284031215612db557612db46129b3565b5b6000612dc384828501612c00565b91505092915050565b60008060408385031215612de357612de26129b3565b5b6000612df185828601612cf3565b9250506020612e0285828601612b4b565b9150509250929050565b612e1581612a42565b8114612e2057600080fd5b50565b600081359050612e3281612e0c565b92915050565b60008060408385031215612e4f57612e4e6129b3565b5b6000612e5d85828601612c00565b9250506020612e6e85828601612e23565b9150509250929050565b600080fd5b600080fd5b7f4e487b7100000000000000000000000000000000000000000000000000000000600052604160045260246000fd5b612eba82612abe565b810181811067ffffffffffffffff82111715612ed957612ed8612e82565b5b80604052505050565b6000612eec6129a9565b9050612ef88282612eb1565b919050565b600067ffffffffffffffff821115612f1857612f17612e82565b5b612f2182612abe565b9050602081019050919050565b82818337600083830152505050565b6000612f50612f4b84612efd565b612ee2565b905082815260208101848484011115612f6c57612f6b612e7d565b5b612f77848285612f2e565b509392505050565b600082601f830112612f9457612f93612e78565b5b8135612fa4848260208601612f3d565b91505092915050565b60008060008060808587031215612fc757612fc66129b3565b5b6000612fd587828801612c00565b9450506020612fe687828801612c00565b9350506040612ff787828801612b4b565b925050606085013567ffffffffffffffff811115613018576130176129b8565b5b61302487828801612f7f565b91505092959194509250565b60008060408385031215613047576130466129b3565b5b600061305585828601612c00565b925050602061306685828601612c00565b9150509250929050565b7f4e487b7100000000000000000000000000000000000000000000000000000000600052602260045260246000fd5b600060028204905060018216806130b757607f821691505b6020821081036130ca576130c9613070565b5b50919050565b60006060820190506130e56000830186612bbf565b6130f26020830185612c55565b6130ff6040830184612bbf565b949350505050565b600060408201905061311c6000830185612bbf565b6131296020830184612c55565b9392505050565b7f43616c6c6572206973206e6f742061206d696e74657200000000000000000000600082015250565b6000613166601683612a83565b915061317182613130565b602082019050919050565b6000602082019050818103600083015261319581613159565b9050919050565b7f4e487b7100000000000000000000000000000000000000000000000000000000600052601160045260246000fd5b60006131d682612b2a565b91507fffffffffffffffffffffffffffffffffffffffffffffffffffffffffffffffff82036132085761320761319c565b5b600182019050919050565b60006060820190506132286000830186612bbf565b6132356020830185612c55565b6132426040830184612c55565b949350505050565b7f4e487b7100000000000000000000000000000000000000000000000000000000600052603260045260246000fd5b600081905092915050565b600061328f82612a78565b6132998185613279565b93506132a9818560208601612a94565b80840191505092915050565b60006132c18285613284565b91506132cd8284613284565b91508190509392505050565b600081519050919050565b600082825260208201905092915050565b6000613300826132d9565b61330a81856132e4565b935061331a818560208601612a94565b61332381612abe565b840191505092915050565b60006080820190506133436000830187612bbf565b6133506020830186612bbf565b61335d6040830185612c55565b818103606083015261336f81846132f5565b905095945050505050565b600081519050613389816129e9565b92915050565b6000602082840312156133a5576133a46129b3565b5b60006133b38482850161337a565b91505092915050565b7f4e487b7100000000000000000000000000000000000000000000000000000000600052601260045260246000fd5b60006133f682612b2a565b915061340183612b2a565b92508282039050818111156134195761341861319c565b5b92915050565b7f4e487b7100000000000000000000000000000000000000000000000000000000600052603160045260246000fd5b60006040820190506134636000830185612bbf565b6134706020830184612d35565b939250505056fea2646970667358221220010f26bc46283579ede5c75d44495f198ae7c97961ef5ff223cc6bcf82c749b664736f6c63430008180033",
  "linkReferences": {},
  "deployedLinkReferences": {}
}