{
  "_format": "hh-sol-artifact-1",
  "contractName": "Marketplace",
  "sourceName": "contracts/Marketplace.sol",
  "abi": [
    {
      "inputs": [
        {
          "internalType": "contract IERC20",
          "name": "_token",
          "type": "address"
        },
        {
          "internalType": "contract IERC721Enumerable",
          "name": "_nft",
          "type": "address"
        },
        {
          "internalType": "address",
          "name": "onwer",
          "type": "address"
        }
      ],
      "stateMutability": "nonpayable",
      "type": "constructor"
    },
    {
      "inputs": [
        {
          "internalType": "address",
          "name": "target",
          "type": "address"
        }
      ],
      "name": "AddressEmptyCode",
      "type": "error"
    },
    {
      "inputs": [
        {
          "internalType": "address",
          "name": "account",
          "type": "address"
        }
      ],
      "name": "AddressInsufficientBalance",
      "type": "error"
    },
    {
      "inputs": [],
      "name": "FailedInnerCall",
      "type": "error"
    },
    {
      "inputs": [
        {
          "internalType": "address",
          "name": "owner",
          "type": "address"
        }
      ],
      "name": "OwnableInvalidOwner",
      "type": "error"
    },
    {
      "inputs": [
        {
          "internalType": "address",
          "name": "account",
          "type": "address"
        }
      ],
      "name": "OwnableUnauthorizedAccount",
      "type": "error"
    },
    {
      "inputs": [
        {
          "internalType": "address",
          "name": "token",
          "type": "address"
        }
      ],
      "name": "SafeERC20FailedOperation",
      "type": "error"
    },
    {
      "anonymous": false,
      "inputs": [
        {
          "indexed": true,
          "internalType": "address",
          "name": "_from",
          "type": "address"
        },
        {
          "indexed": false,
          "internalType": "uint256",
          "name": "_tokenId",
          "type": "uint256"
        },
        {
          "indexed": false,
          "internalType": "uint256",
          "name": "_price",
          "type": "uint256"
        }
      ],
      "name": "BuyNFT",
      "type": "event"
    },
    {
      "anonymous": false,
      "inputs": [
        {
          "indexed": true,
          "internalType": "address",
          "name": "_from",
          "type": "address"
        },
        {
          "indexed": false,
          "internalType": "uint256",
          "name": "_tokenId",
          "type": "uint256"
        },
        {
          "indexed": false,
          "internalType": "uint256",
          "name": "_price",
          "type": "uint256"
        }
      ],
      "name": "ListNFT",
      "type": "event"
    },
    {
      "anonymous": false,
      "inputs": [
        {
          "indexed": true,
          "internalType": "address",
          "name": "previousOwner",
          "type": "address"
        },
        {
          "indexed": true,
          "internalType": "address",
          "name": "newOwner",
          "type": "address"
        }
      ],
      "name": "OwnershipTransferred",
      "type": "event"
    },
    {
      "anonymous": false,
      "inputs": [
        {
          "indexed": false,
          "internalType": "contract IERC721Enumerable",
          "name": "_nft",
          "type": "address"
        }
      ],
      "name": "SetNFT",
      "type": "event"
    },
    {
      "anonymous": false,
      "inputs": [
        {
          "indexed": false,
          "internalType": "uint256",
          "name": "_tax",
          "type": "uint256"
        }
      ],
      "name": "SetTax",
      "type": "event"
    },
    {
      "anonymous": false,
      "inputs": [
        {
          "indexed": false,
          "internalType": "contract IERC20",
          "name": "_token",
          "type": "address"
        }
      ],
      "name": "SetToken",
      "type": "event"
    },
    {
      "anonymous": false,
      "inputs": [
        {
          "indexed": true,
          "internalType": "address",
          "name": "_from",
          "type": "address"
        },
        {
          "indexed": false,
          "internalType": "uint256",
          "name": "_tokenId",
          "type": "uint256"
        }
      ],
      "name": "UnlistNFT",
      "type": "event"
    },
    {
      "anonymous": false,
      "inputs": [
        {
          "indexed": false,
          "internalType": "uint256",
          "name": "_tokenId",
          "type": "uint256"
        },
        {
          "indexed": false,
          "internalType": "uint256",
          "name": "_price",
          "type": "uint256"
        }
      ],
      "name": "UpdateListingNFTPrice",
      "type": "event"
    },
    {
      "inputs": [
        {
          "internalType": "uint256",
          "name": "_tokenId",
          "type": "uint256"
        },
        {
          "internalType": "uint256",
          "name": "_price",
          "type": "uint256"
        }
      ],
      "name": "buyNft",
      "outputs": [],
      "stateMutability": "nonpayable",
      "type": "function"
    },
    {
      "inputs": [],
      "name": "getListedNft",
      "outputs": [
        {
          "components": [
            {
              "internalType": "address payable",
              "name": "author",
              "type": "address"
            },
            {
              "internalType": "uint256",
              "name": "price",
              "type": "uint256"
            },
            {
              "internalType": "uint256",
              "name": "tokenId",
              "type": "uint256"
            }
          ],
          "internalType": "struct Marketplace.ListDetail[]",
          "name": "",
          "type": "tuple[]"
        }
      ],
      "stateMutability": "view",
      "type": "function"
    },
    {
      "inputs": [
        {
          "internalType": "uint256",
          "name": "",
          "type": "uint256"
        }
      ],
      "name": "items",
      "outputs": [
        {
          "internalType": "uint256",
          "name": "itemId",
          "type": "uint256"
        },
        {
          "internalType": "contract IERC721",
          "name": "nft",
          "type": "address"
        },
        {
          "internalType": "uint256",
          "name": "tokenId",
          "type": "uint256"
        },
        {
          "internalType": "uint256",
          "name": "price",
          "type": "uint256"
        },
        {
          "internalType": "address payable",
          "name": "seller",
          "type": "address"
        },
        {
          "internalType": "bool",
          "name": "sold",
          "type": "bool"
        }
      ],
      "stateMutability": "view",
      "type": "function"
    },
    {
      "inputs": [
        {
          "internalType": "uint256",
          "name": "_tokenId",
          "type": "uint256"
        },
        {
          "internalType": "uint256",
          "name": "_price",
          "type": "uint256"
        }
      ],
      "name": "listNft",
      "outputs": [],
      "stateMutability": "nonpayable",
      "type": "function"
    },
    {
      "inputs": [
        {
          "internalType": "address",
          "name": "",
          "type": "address"
        },
        {
          "internalType": "address",
          "name": "",
          "type": "address"
        },
        {
          "internalType": "uint256",
          "name": "",
          "type": "uint256"
        },
        {
          "internalType": "bytes",
          "name": "",
          "type": "bytes"
        }
      ],
      "name": "onERC721Received",
      "outputs": [
        {
          "internalType": "bytes4",
          "name": "",
          "type": "bytes4"
        }
      ],
      "stateMutability": "pure",
      "type": "function"
    },
    {
      "inputs": [],
      "name": "owner",
      "outputs": [
        {
          "internalType": "address",
          "name": "",
          "type": "address"
        }
      ],
      "stateMutability": "view",
      "type": "function"
    },
    {
      "inputs": [],
      "name": "renounceOwnership",
      "outputs": [],
      "stateMutability": "nonpayable",
      "type": "function"
    },
    {
      "inputs": [
        {
          "internalType": "contract IERC721Enumerable",
          "name": "_nft",
          "type": "address"
        }
      ],
      "name": "setNft",
      "outputs": [],
      "stateMutability": "nonpayable",
      "type": "function"
    },
    {
      "inputs": [
        {
          "internalType": "uint256",
          "name": "_tax",
          "type": "uint256"
        }
      ],
      "name": "setTax",
      "outputs": [],
      "stateMutability": "nonpayable",
      "type": "function"
    },
    {
      "inputs": [
        {
          "internalType": "contract IERC20",
          "name": "_token",
          "type": "address"
        }
      ],
      "name": "setToken",
      "outputs": [],
      "stateMutability": "nonpayable",
      "type": "function"
    },
    {
      "inputs": [
        {
          "internalType": "address",
          "name": "newOwner",
          "type": "address"
        }
      ],
      "name": "transferOwnership",
      "outputs": [],
      "stateMutability": "nonpayable",
      "type": "function"
    },
    {
      "inputs": [
        {
          "internalType": "uint256",
          "name": "_tokenId",
          "type": "uint256"
        }
      ],
      "name": "unListNft",
      "outputs": [],
      "stateMutability": "nonpayable",
      "type": "function"
    },
    {
      "inputs": [
        {
          "internalType": "uint256",
          "name": "_tokenId",
          "type": "uint256"
        },
        {
          "internalType": "uint256",
          "name": "_price",
          "type": "uint256"
        }
      ],
      "name": "updateListingNftPrice",
      "outputs": [],
      "stateMutability": "nonpayable",
      "type": "function"
    }
  ],
  "bytecode": "0x6080604052600a6003553480156200001657600080fd5b50604051620029e0380380620029e083398181016040528101906200003c919062000307565b80600073ffffffffffffffffffffffffffffffffffffffff168173ffffffffffffffffffffffffffffffffffffffff1603620000b25760006040517f1e4fbdf7000000000000000000000000000000000000000000000000000000008152600401620000a9919062000374565b60405180910390fd5b620000c3816200014f60201b60201c565b5081600160006101000a81548173ffffffffffffffffffffffffffffffffffffffff021916908373ffffffffffffffffffffffffffffffffffffffff16021790555082600260006101000a81548173ffffffffffffffffffffffffffffffffffffffff021916908373ffffffffffffffffffffffffffffffffffffffff16021790555050505062000391565b60008060009054906101000a900473ffffffffffffffffffffffffffffffffffffffff169050816000806101000a81548173ffffffffffffffffffffffffffffffffffffffff021916908373ffffffffffffffffffffffffffffffffffffffff1602179055508173ffffffffffffffffffffffffffffffffffffffff168173ffffffffffffffffffffffffffffffffffffffff167f8be0079c531659141344cd1fd0a4f28419497f9722a3daafe3b4186f6b6457e060405160405180910390a35050565b600080fd5b600073ffffffffffffffffffffffffffffffffffffffff82169050919050565b6000620002458262000218565b9050919050565b6000620002598262000238565b9050919050565b6200026b816200024c565b81146200027757600080fd5b50565b6000815190506200028b8162000260565b92915050565b60006200029e8262000238565b9050919050565b620002b08162000291565b8114620002bc57600080fd5b50565b600081519050620002d081620002a5565b92915050565b620002e18162000238565b8114620002ed57600080fd5b50565b6000815190506200030181620002d6565b92915050565b60008060006060848603121562000323576200032262000213565b5b600062000333868287016200027a565b93505060206200034686828701620002bf565b92505060406200035986828701620002f0565b9150509250925092565b6200036e8162000238565b82525050565b60006020820190506200038b600083018462000363565b92915050565b61263f80620003a16000396000f3fe608060405234801561001057600080fd5b50600436106100cf5760003560e01c80637a53fde61161008c578063bfb231d211610066578063bfb231d2146101d6578063f2fde38b1461020b578063f3c1338714610227578063fe8723e114610243576100cf565b80637a53fde61461017e5780638da5cb5b1461019c578063ab67b236146101ba576100cf565b8063144fa6d7146100d4578063150b7a02146100f05780632e5bb6ff14610120578063516468691461013c578063556f808414610158578063715018a614610174575b600080fd5b6100ee60048036038101906100e99190611947565b61025f565b005b61010a60048036038101906101059190611a3b565b6102e2565b6040516101179190611afe565b60405180910390f35b61013a60048036038101906101359190611b19565b610310565b005b61015660048036038101906101519190611b46565b610359565b005b610172600480360381019061016d9190611b46565b610560565b005b61017c6109b1565b005b6101866109c5565b6040516101939190611ca7565b60405180910390f35b6101a4610c23565b6040516101b19190611cd8565b60405180910390f35b6101d460048036038101906101cf9190611b19565b610c4c565b005b6101f060048036038101906101eb9190611b19565b610f44565b60405161020296959493929190611d8b565b60405180910390f35b61022560048036038101906102209190611dec565b610fcd565b005b610241600480360381019061023c9190611e57565b611053565b005b61025d60048036038101906102589190611b46565b6110d6565b005b610267611473565b80600260006101000a81548173ffffffffffffffffffffffffffffffffffffffff021916908373ffffffffffffffffffffffffffffffffffffffff1602179055507fefc1fd16ea80a922086ee4e995739d59b025c1bcea6d1f67855747480c83214b816040516102d79190611ea5565b60405180910390a150565b60007f150b7a023d4804d13e8c85fb27262cb750cf6ba9f9dd3bb30d90f482ceeb4b1f905095945050505050565b610318611473565b806003819055507f9fa979502e438dac613eeda5e69bdaf59a326dc09969a480e1e19078b24e15d18160405161034e9190611ec0565b60405180910390a150565b813073ffffffffffffffffffffffffffffffffffffffff16600160009054906101000a900473ffffffffffffffffffffffffffffffffffffffff1673ffffffffffffffffffffffffffffffffffffffff16636352211e836040518263ffffffff1660e01b81526004016103cc9190611ec0565b602060405180830381865afa1580156103e9573d6000803e3d6000fd5b505050506040513d601f19601f8201168201806040525081019061040d9190611ef0565b73ffffffffffffffffffffffffffffffffffffffff1614610463576040517f08c379a000000000000000000000000000000000000000000000000000000000815260040161045a90611fa0565b60405180910390fd5b3373ffffffffffffffffffffffffffffffffffffffff166004600085815260200190815260200160002060000160009054906101000a900473ffffffffffffffffffffffffffffffffffffffff1673ffffffffffffffffffffffffffffffffffffffff1614610507576040517f08c379a00000000000000000000000000000000000000000000000000000000081526004016104fe90612032565b60405180910390fd5b8160046000858152602001908152602001600020600101819055507fc7113691cf96332a4c71d0e3d8fc13f177dc22111131519552cd24a04fde1e5c8383604051610553929190612052565b60405180910390a1505050565b813073ffffffffffffffffffffffffffffffffffffffff16600160009054906101000a900473ffffffffffffffffffffffffffffffffffffffff1673ffffffffffffffffffffffffffffffffffffffff16636352211e836040518263ffffffff1660e01b81526004016105d39190611ec0565b602060405180830381865afa1580156105f0573d6000803e3d6000fd5b505050506040513d601f19601f820116820180604052508101906106149190611ef0565b73ffffffffffffffffffffffffffffffffffffffff161461066a576040517f08c379a000000000000000000000000000000000000000000000000000000000815260040161066190611fa0565b60405180910390fd5b81600260009054906101000a900473ffffffffffffffffffffffffffffffffffffffff1673ffffffffffffffffffffffffffffffffffffffff166370a08231336040518263ffffffff1660e01b81526004016106c69190611cd8565b602060405180830381865afa1580156106e3573d6000803e3d6000fd5b505050506040513d601f19601f820116820180604052508101906107079190612090565b1015610748576040517f08c379a000000000000000000000000000000000000000000000000000000000815260040161073f90612109565b60405180910390fd5b81600460008581526020019081526020016000206001015411156107a1576040517f08c379a00000000000000000000000000000000000000000000000000000000081526004016107989061219b565b60405180910390fd5b6107cf600260009054906101000a900473ffffffffffffffffffffffffffffffffffffffff163330856114fa565b600260009054906101000a900473ffffffffffffffffffffffffffffffffffffffff1673ffffffffffffffffffffffffffffffffffffffff1663a9059cbb6004600086815260200190815260200160002060000160009054906101000a900473ffffffffffffffffffffffffffffffffffffffff166064600354606461085591906121ea565b86610860919061221e565b61086a919061228f565b6040518363ffffffff1660e01b81526004016108879291906122e1565b6020604051808303816000875af11580156108a6573d6000803e3d6000fd5b505050506040513d601f19601f820116820180604052508101906108ca9190612336565b50600160009054906101000a900473ffffffffffffffffffffffffffffffffffffffff1673ffffffffffffffffffffffffffffffffffffffff166342842e0e3033866040518463ffffffff1660e01b815260040161092a93929190612363565b600060405180830381600087803b15801561094457600080fd5b505af1158015610958573d6000803e3d6000fd5b505050503373ffffffffffffffffffffffffffffffffffffffff167f5d963241241cfe9e161d13500d628058954b3febfde03e4b1f4071370e72fe2b84846040516109a4929190612052565b60405180910390a2505050565b6109b9611473565b6109c3600061157c565b565b60606000600160009054906101000a900473ffffffffffffffffffffffffffffffffffffffff1673ffffffffffffffffffffffffffffffffffffffff166370a08231306040518263ffffffff1660e01b8152600401610a249190611cd8565b602060405180830381865afa158015610a41573d6000803e3d6000fd5b505050506040513d601f19601f82011682018060405250810190610a659190612090565b905060008167ffffffffffffffff811115610a8357610a8261239a565b5b604051908082528060200260200182016040528015610abc57816020015b610aa9611896565b815260200190600190039081610aa15790505b50905060005b82811015610c1a5760046000600160009054906101000a900473ffffffffffffffffffffffffffffffffffffffff1673ffffffffffffffffffffffffffffffffffffffff16632f745c5930856040518363ffffffff1660e01b8152600401610b2b9291906123c9565b602060405180830381865afa158015610b48573d6000803e3d6000fd5b505050506040513d601f19601f82011682018060405250810190610b6c9190612090565b81526020019081526020016000206040518060600160405290816000820160009054906101000a900473ffffffffffffffffffffffffffffffffffffffff1673ffffffffffffffffffffffffffffffffffffffff1673ffffffffffffffffffffffffffffffffffffffff16815260200160018201548152602001600282015481525050828281518110610c0257610c016123f2565b5b60200260200101819052508080600101915050610ac2565b50809250505090565b60008060009054906101000a900473ffffffffffffffffffffffffffffffffffffffff16905090565b803373ffffffffffffffffffffffffffffffffffffffff16600160009054906101000a900473ffffffffffffffffffffffffffffffffffffffff1673ffffffffffffffffffffffffffffffffffffffff16636352211e836040518263ffffffff1660e01b8152600401610cbf9190611ec0565b602060405180830381865afa158015610cdc573d6000803e3d6000fd5b505050506040513d601f19601f82011682018060405250810190610d009190611ef0565b73ffffffffffffffffffffffffffffffffffffffff1614610d56576040517f08c379a0000000000000000000000000000000000000000000000000000000008152600401610d4d90612493565b60405180910390fd5b813073ffffffffffffffffffffffffffffffffffffffff16600160009054906101000a900473ffffffffffffffffffffffffffffffffffffffff1673ffffffffffffffffffffffffffffffffffffffff16636352211e836040518263ffffffff1660e01b8152600401610dc99190611ec0565b602060405180830381865afa158015610de6573d6000803e3d6000fd5b505050506040513d601f19601f82011682018060405250810190610e0a9190611ef0565b73ffffffffffffffffffffffffffffffffffffffff1614610e60576040517f08c379a0000000000000000000000000000000000000000000000000000000008152600401610e5790611fa0565b60405180910390fd5b600160009054906101000a900473ffffffffffffffffffffffffffffffffffffffff1673ffffffffffffffffffffffffffffffffffffffff166342842e0e3033866040518463ffffffff1660e01b8152600401610ebf93929190612363565b600060405180830381600087803b158015610ed957600080fd5b505af1158015610eed573d6000803e3d6000fd5b505050503373ffffffffffffffffffffffffffffffffffffffff167f995270fd4f93cea033cdf0da430f296d82414eb9a7d99b6b391bb3e8a1ee9fc284604051610f379190611ec0565b60405180910390a2505050565b60056020528060005260406000206000915090508060000154908060010160009054906101000a900473ffffffffffffffffffffffffffffffffffffffff16908060020154908060030154908060040160009054906101000a900473ffffffffffffffffffffffffffffffffffffffff16908060040160149054906101000a900460ff16905086565b610fd5611473565b600073ffffffffffffffffffffffffffffffffffffffff168173ffffffffffffffffffffffffffffffffffffffff16036110475760006040517f1e4fbdf700000000000000000000000000000000000000000000000000000000815260040161103e9190611cd8565b60405180910390fd5b6110508161157c565b50565b61105b611473565b80600160006101000a81548173ffffffffffffffffffffffffffffffffffffffff021916908373ffffffffffffffffffffffffffffffffffffffff1602179055507ff8525b9383ba5cc1b196c9a879bcbe7911913876aaff159ec424e1bb6136fff2816040516110cb91906124d4565b60405180910390a150565b813373ffffffffffffffffffffffffffffffffffffffff16600160009054906101000a900473ffffffffffffffffffffffffffffffffffffffff1673ffffffffffffffffffffffffffffffffffffffff16636352211e836040518263ffffffff1660e01b81526004016111499190611ec0565b602060405180830381865afa158015611166573d6000803e3d6000fd5b505050506040513d601f19601f8201168201806040525081019061118a9190611ef0565b73ffffffffffffffffffffffffffffffffffffffff16146111e0576040517f08c379a00000000000000000000000000000000000000000000000000000000081526004016111d790612493565b60405180910390fd5b823073ffffffffffffffffffffffffffffffffffffffff16600160009054906101000a900473ffffffffffffffffffffffffffffffffffffffff1673ffffffffffffffffffffffffffffffffffffffff1663081812fc836040518263ffffffff1660e01b81526004016112539190611ec0565b602060405180830381865afa158015611270573d6000803e3d6000fd5b505050506040513d601f19601f820116820180604052508101906112949190611ef0565b73ffffffffffffffffffffffffffffffffffffffff16146112ea576040517f08c379a00000000000000000000000000000000000000000000000000000000081526004016112e190612561565b60405180910390fd5b60405180606001604052803373ffffffffffffffffffffffffffffffffffffffff168152602001848152602001858152506004600086815260200190815260200160002060008201518160000160006101000a81548173ffffffffffffffffffffffffffffffffffffffff021916908373ffffffffffffffffffffffffffffffffffffffff1602179055506020820151816001015560408201518160020155905050600160009054906101000a900473ffffffffffffffffffffffffffffffffffffffff1673ffffffffffffffffffffffffffffffffffffffff166342842e0e3330876040518463ffffffff1660e01b81526004016113eb93929190612363565b600060405180830381600087803b15801561140557600080fd5b505af1158015611419573d6000803e3d6000fd5b505050503373ffffffffffffffffffffffffffffffffffffffff167f6cd52e2afd4c9fdb90f6226975fb688c697f05f2c4306f5bff7ea8cd941ed7ce8585604051611465929190612052565b60405180910390a250505050565b61147b611640565b73ffffffffffffffffffffffffffffffffffffffff16611499610c23565b73ffffffffffffffffffffffffffffffffffffffff16146114f8576114bc611640565b6040517f118cdaa70000000000000000000000000000000000000000000000000000000081526004016114ef9190611cd8565b60405180910390fd5b565b611576848573ffffffffffffffffffffffffffffffffffffffff166323b872dd86868660405160240161152f93929190612363565b604051602081830303815290604052915060e01b6020820180517bffffffffffffffffffffffffffffffffffffffffffffffffffffffff8381831617835250505050611648565b50505050565b60008060009054906101000a900473ffffffffffffffffffffffffffffffffffffffff169050816000806101000a81548173ffffffffffffffffffffffffffffffffffffffff021916908373ffffffffffffffffffffffffffffffffffffffff1602179055508173ffffffffffffffffffffffffffffffffffffffff168173ffffffffffffffffffffffffffffffffffffffff167f8be0079c531659141344cd1fd0a4f28419497f9722a3daafe3b4186f6b6457e060405160405180910390a35050565b600033905090565b6000611673828473ffffffffffffffffffffffffffffffffffffffff166116df90919063ffffffff16565b905060008151141580156116985750808060200190518101906116969190612336565b155b156116da57826040517f5274afe70000000000000000000000000000000000000000000000000000000081526004016116d19190611cd8565b60405180910390fd5b505050565b60606116ed838360006116f5565b905092915050565b60608147101561173c57306040517fcd7860590000000000000000000000000000000000000000000000000000000081526004016117339190611cd8565b60405180910390fd5b6000808573ffffffffffffffffffffffffffffffffffffffff16848660405161176591906125f2565b60006040518083038185875af1925050503d80600081146117a2576040519150601f19603f3d011682016040523d82523d6000602084013e6117a7565b606091505b50915091506117b78683836117c2565b925050509392505050565b6060826117d7576117d282611851565b611849565b600082511480156117ff575060008473ffffffffffffffffffffffffffffffffffffffff163b145b1561184157836040517f9996b3150000000000000000000000000000000000000000000000000000000081526004016118389190611cd8565b60405180910390fd5b81905061184a565b5b9392505050565b6000815111156118645780518082602001fd5b6040517f1425ea4200000000000000000000000000000000000000000000000000000000815260040160405180910390fd5b6040518060600160405280600073ffffffffffffffffffffffffffffffffffffffff16815260200160008152602001600081525090565b600080fd5b600080fd5b600073ffffffffffffffffffffffffffffffffffffffff82169050919050565b6000611902826118d7565b9050919050565b6000611914826118f7565b9050919050565b61192481611909565b811461192f57600080fd5b50565b6000813590506119418161191b565b92915050565b60006020828403121561195d5761195c6118cd565b5b600061196b84828501611932565b91505092915050565b61197d816118f7565b811461198857600080fd5b50565b60008135905061199a81611974565b92915050565b6000819050919050565b6119b3816119a0565b81146119be57600080fd5b50565b6000813590506119d0816119aa565b92915050565b600080fd5b600080fd5b600080fd5b60008083601f8401126119fb576119fa6119d6565b5b8235905067ffffffffffffffff811115611a1857611a176119db565b5b602083019150836001820283011115611a3457611a336119e0565b5b9250929050565b600080600080600060808688031215611a5757611a566118cd565b5b6000611a658882890161198b565b9550506020611a768882890161198b565b9450506040611a87888289016119c1565b935050606086013567ffffffffffffffff811115611aa857611aa76118d2565b5b611ab4888289016119e5565b92509250509295509295909350565b60007fffffffff0000000000000000000000000000000000000000000000000000000082169050919050565b611af881611ac3565b82525050565b6000602082019050611b136000830184611aef565b92915050565b600060208284031215611b2f57611b2e6118cd565b5b6000611b3d848285016119c1565b91505092915050565b60008060408385031215611b5d57611b5c6118cd565b5b6000611b6b858286016119c1565b9250506020611b7c858286016119c1565b9150509250929050565b600081519050919050565b600082825260208201905092915050565b6000819050602082019050919050565b6000611bbd826118d7565b9050919050565b611bcd81611bb2565b82525050565b611bdc816119a0565b82525050565b606082016000820151611bf86000850182611bc4565b506020820151611c0b6020850182611bd3565b506040820151611c1e6040850182611bd3565b50505050565b6000611c308383611be2565b60608301905092915050565b6000602082019050919050565b6000611c5482611b86565b611c5e8185611b91565b9350611c6983611ba2565b8060005b83811015611c9a578151611c818882611c24565b9750611c8c83611c3c565b925050600181019050611c6d565b5085935050505092915050565b60006020820190508181036000830152611cc18184611c49565b905092915050565b611cd2816118f7565b82525050565b6000602082019050611ced6000830184611cc9565b92915050565b611cfc816119a0565b82525050565b6000819050919050565b6000611d27611d22611d1d846118d7565b611d02565b6118d7565b9050919050565b6000611d3982611d0c565b9050919050565b6000611d4b82611d2e565b9050919050565b611d5b81611d40565b82525050565b611d6a81611bb2565b82525050565b60008115159050919050565b611d8581611d70565b82525050565b600060c082019050611da06000830189611cf3565b611dad6020830188611d52565b611dba6040830187611cf3565b611dc76060830186611cf3565b611dd46080830185611d61565b611de160a0830184611d7c565b979650505050505050565b600060208284031215611e0257611e016118cd565b5b6000611e108482850161198b565b91505092915050565b6000611e24826118f7565b9050919050565b611e3481611e19565b8114611e3f57600080fd5b50565b600081359050611e5181611e2b565b92915050565b600060208284031215611e6d57611e6c6118cd565b5b6000611e7b84828501611e42565b91505092915050565b6000611e8f82611d2e565b9050919050565b611e9f81611e84565b82525050565b6000602082019050611eba6000830184611e96565b92915050565b6000602082019050611ed56000830184611cf3565b92915050565b600081519050611eea81611974565b92915050565b600060208284031215611f0657611f056118cd565b5b6000611f1484828501611edb565b91505092915050565b600082825260208201905092915050565b7f54686973204e465420646f65736e2774206578697374206f6e206d61726b657460008201527f706c616365000000000000000000000000000000000000000000000000000000602082015250565b6000611f8a602583611f1d565b9150611f9582611f2e565b604082019050919050565b60006020820190508181036000830152611fb981611f7d565b9050919050565b7f4f6e6c79206f776e65722063616e20757064617465207072696365206f66207460008201527f686973204e465400000000000000000000000000000000000000000000000000602082015250565b600061201c602783611f1d565b915061202782611fc0565b604082019050919050565b6000602082019050818103600083015261204b8161200f565b9050919050565b60006040820190506120676000830185611cf3565b6120746020830184611cf3565b9392505050565b60008151905061208a816119aa565b92915050565b6000602082840312156120a6576120a56118cd565b5b60006120b48482850161207b565b91505092915050565b7f496e73756666696369656e74206163636f756e742062616c616e636500000000600082015250565b60006120f3601c83611f1d565b91506120fe826120bd565b602082019050919050565b60006020820190508181036000830152612122816120e6565b9050919050565b7f4d696e696d756d20707269636520686173206e6f74206265656e20726561636860008201527f6564000000000000000000000000000000000000000000000000000000000000602082015250565b6000612185602283611f1d565b915061219082612129565b604082019050919050565b600060208201905081810360008301526121b481612178565b9050919050565b7f4e487b7100000000000000000000000000000000000000000000000000000000600052601160045260246000fd5b60006121f5826119a0565b9150612200836119a0565b9250828203905081811115612218576122176121bb565b5b92915050565b6000612229826119a0565b9150612234836119a0565b9250828202612242816119a0565b91508282048414831517612259576122586121bb565b5b5092915050565b7f4e487b7100000000000000000000000000000000000000000000000000000000600052601260045260246000fd5b600061229a826119a0565b91506122a5836119a0565b9250826122b5576122b4612260565b5b828204905092915050565b60006122cb82611d2e565b9050919050565b6122db816122c0565b82525050565b60006040820190506122f660008301856122d2565b6123036020830184611cf3565b9392505050565b61231381611d70565b811461231e57600080fd5b50565b6000815190506123308161230a565b92915050565b60006020828403121561234c5761234b6118cd565b5b600061235a84828501612321565b91505092915050565b60006060820190506123786000830186611cc9565b6123856020830185611cc9565b6123926040830184611cf3565b949350505050565b7f4e487b7100000000000000000000000000000000000000000000000000000000600052604160045260246000fd5b60006040820190506123de6000830185611cc9565b6123eb6020830184611cf3565b9392505050565b7f4e487b7100000000000000000000000000000000000000000000000000000000600052603260045260246000fd5b7f596f757220617265206e6f7420746865206f776e6572206f662074686973204e60008201527f4654000000000000000000000000000000000000000000000000000000000000602082015250565b600061247d602283611f1d565b915061248882612421565b604082019050919050565b600060208201905081810360008301526124ac81612470565b9050919050565b60006124be82611d2e565b9050919050565b6124ce816124b3565b82525050565b60006020820190506124e960008301846124c5565b92915050565b7f4d61726b6574706c616365206973206e6f7420617070726f76656420746f207460008201527f72616e736665722074686973204e465400000000000000000000000000000000602082015250565b600061254b603083611f1d565b9150612556826124ef565b604082019050919050565b6000602082019050818103600083015261257a8161253e565b9050919050565b600081519050919050565b600081905092915050565b60005b838110156125b557808201518184015260208101905061259a565b60008484015250505050565b60006125cc82612581565b6125d6818561258c565b93506125e6818560208601612597565b80840191505092915050565b60006125fe82846125c1565b91508190509291505056fea264697066735822122088d259594d1bebae5db8832f53cc696e0f5a9987252e7127e3c8a7a49f8ffb2b64736f6c63430008180033",
  "linkReferences": {},
  "deployedLinkReferences": {}
}