{
  "_format": "hh-sol-artifact-1",
  "contractName": "DTC",
  "sourceName": "contracts/Token.sol",
  "abi": [
    {
      "inputs": [],
      "stateMutability": "nonpayable",
      "type": "constructor"
    },
    {
      "inputs": [
        {
          "internalType": "address",
          "name": "sender",
          "type": "address"
        },
        {
          "internalType": "uint256",
          "name": "tokenId",
          "type": "uint256"
        },
        {
          "internalType": "address",
          "name": "owner",
          "type": "address"
        }
      ],
      "name": "ERC721IncorrectOwner",
      "type": "error"
    },
    {
      "inputs": [
        {
          "internalType": "address",
          "name": "operator",
          "type": "address"
        },
        {
          "internalType": "uint256",
          "name": "tokenId",
          "type": "uint256"
        }
      ],
      "name": "ERC721InsufficientApproval",
      "type": "error"
    },
    {
      "inputs": [
        {
          "internalType": "address",
          "name": "approver",
          "type": "address"
        }
      ],
      "name": "ERC721InvalidApprover",
      "type": "error"
    },
    {
      "inputs": [
        {
          "internalType": "address",
          "name": "operator",
          "type": "address"
        }
      ],
      "name": "ERC721InvalidOperator",
      "type": "error"
    },
    {
      "inputs": [
        {
          "internalType": "address",
          "name": "owner",
          "type": "address"
        }
      ],
      "name": "ERC721InvalidOwner",
      "type": "error"
    },
    {
      "inputs": [
        {
          "internalType": "address",
          "name": "receiver",
          "type": "address"
        }
      ],
      "name": "ERC721InvalidReceiver",
      "type": "error"
    },
    {
      "inputs": [
        {
          "internalType": "address",
          "name": "sender",
          "type": "address"
        }
      ],
      "name": "ERC721InvalidSender",
      "type": "error"
    },
    {
      "inputs": [
        {
          "internalType": "uint256",
          "name": "tokenId",
          "type": "uint256"
        }
      ],
      "name": "ERC721NonexistentToken",
      "type": "error"
    },
    {
      "anonymous": false,
      "inputs": [
        {
          "indexed": true,
          "internalType": "address",
          "name": "owner",
          "type": "address"
        },
        {
          "indexed": true,
          "internalType": "address",
          "name": "approved",
          "type": "address"
        },
        {
          "indexed": true,
          "internalType": "uint256",
          "name": "tokenId",
          "type": "uint256"
        }
      ],
      "name": "Approval",
      "type": "event"
    },
    {
      "anonymous": false,
      "inputs": [
        {
          "indexed": true,
          "internalType": "address",
          "name": "owner",
          "type": "address"
        },
        {
          "indexed": true,
          "internalType": "address",
          "name": "operator",
          "type": "address"
        },
        {
          "indexed": false,
          "internalType": "bool",
          "name": "approved",
          "type": "bool"
        }
      ],
      "name": "ApprovalForAll",
      "type": "event"
    },
    {
      "anonymous": false,
      "inputs": [
        {
          "indexed": false,
          "internalType": "uint256",
          "name": "_fromTokenId",
          "type": "uint256"
        },
        {
          "indexed": false,
          "internalType": "uint256",
          "name": "_toTokenId",
          "type": "uint256"
        }
      ],
      "name": "BatchMetadataUpdate",
      "type": "event"
    },
    {
      "anonymous": false,
      "inputs": [
        {
          "indexed": false,
          "internalType": "uint256",
          "name": "_tokenId",
          "type": "uint256"
        }
      ],
      "name": "MetadataUpdate",
      "type": "event"
    },
    {
      "anonymous": false,
      "inputs": [
        {
          "indexed": true,
          "internalType": "address",
          "name": "from",
          "type": "address"
        },
        {
          "indexed": true,
          "internalType": "address",
          "name": "to",
          "type": "address"
        },
        {
          "indexed": true,
          "internalType": "uint256",
          "name": "tokenId",
          "type": "uint256"
        }
      ],
      "name": "Transfer",
      "type": "event"
    },
    {
      "inputs": [],
      "name": "_nextTokenId",
      "outputs": [
        {
          "internalType": "uint256",
          "name": "",
          "type": "uint256"
        }
      ],
      "stateMutability": "view",
      "type": "function"
    },
    {
      "inputs": [
        {
          "internalType": "address",
          "name": "to",
          "type": "address"
        },
        {
          "internalType": "uint256",
          "name": "tokenId",
          "type": "uint256"
        }
      ],
      "name": "approve",
      "outputs": [],
      "stateMutability": "nonpayable",
      "type": "function"
    },
    {
      "inputs": [
        {
          "internalType": "address",
          "name": "owner",
          "type": "address"
        }
      ],
      "name": "balanceOf",
      "outputs": [
        {
          "internalType": "uint256",
          "name": "",
          "type": "uint256"
        }
      ],
      "stateMutability": "view",
      "type": "function"
    },
    {
      "inputs": [
        {
          "internalType": "uint256",
          "name": "tokenId",
          "type": "uint256"
        }
      ],
      "name": "getApproved",
      "outputs": [
        {
          "internalType": "address",
          "name": "",
          "type": "address"
        }
      ],
      "stateMutability": "view",
      "type": "function"
    },
    {
      "inputs": [
        {
          "internalType": "address",
          "name": "owner",
          "type": "address"
        },
        {
          "internalType": "address",
          "name": "operator",
          "type": "address"
        }
      ],
      "name": "isApprovedForAll",
      "outputs": [
        {
          "internalType": "bool",
          "name": "",
          "type": "bool"
        }
      ],
      "stateMutability": "view",
      "type": "function"
    },
    {
      "inputs": [
        {
          "internalType": "address",
          "name": "_to",
          "type": "address"
        },
        {
          "internalType": "string",
          "name": "_tokenURI",
          "type": "string"
        }
      ],
      "name": "mintNewToken",
      "outputs": [
        {
          "internalType": "uint256",
          "name": "",
          "type": "uint256"
        }
      ],
      "stateMutability": "nonpayable",
      "type": "function"
    },
    {
      "inputs": [],
      "name": "name",
      "outputs": [
        {
          "internalType": "string",
          "name": "",
          "type": "string"
        }
      ],
      "stateMutability": "view",
      "type": "function"
    },
    {
      "inputs": [
        {
          "internalType": "uint256",
          "name": "tokenId",
          "type": "uint256"
        }
      ],
      "name": "ownerOf",
      "outputs": [
        {
          "internalType": "address",
          "name": "",
          "type": "address"
        }
      ],
      "stateMutability": "view",
      "type": "function"
    },
    {
      "inputs": [
        {
          "internalType": "address",
          "name": "from",
          "type": "address"
        },
        {
          "internalType": "address",
          "name": "to",
          "type": "address"
        },
        {
          "internalType": "uint256",
          "name": "tokenId",
          "type": "uint256"
        }
      ],
      "name": "safeTransferFrom",
      "outputs": [],
      "stateMutability": "nonpayable",
      "type": "function"
    },
    {
      "inputs": [
        {
          "internalType": "address",
          "name": "from",
          "type": "address"
        },
        {
          "internalType": "address",
          "name": "to",
          "type": "address"
        },
        {
          "internalType": "uint256",
          "name": "tokenId",
          "type": "uint256"
        },
        {
          "internalType": "bytes",
          "name": "data",
          "type": "bytes"
        }
      ],
      "name": "safeTransferFrom",
      "outputs": [],
      "stateMutability": "nonpayable",
      "type": "function"
    },
    {
      "inputs": [
        {
          "internalType": "address",
          "name": "operator",
          "type": "address"
        },
        {
          "internalType": "bool",
          "name": "approved",
          "type": "bool"
        }
      ],
      "name": "setApprovalForAll",
      "outputs": [],
      "stateMutability": "nonpayable",
      "type": "function"
    },
    {
      "inputs": [
        {
          "internalType": "bytes4",
          "name": "interfaceId",
          "type": "bytes4"
        }
      ],
      "name": "supportsInterface",
      "outputs": [
        {
          "internalType": "bool",
          "name": "",
          "type": "bool"
        }
      ],
      "stateMutability": "view",
      "type": "function"
    },
    {
      "inputs": [],
      "name": "symbol",
      "outputs": [
        {
          "internalType": "string",
          "name": "",
          "type": "string"
        }
      ],
      "stateMutability": "view",
      "type": "function"
    },
    {
      "inputs": [
        {
          "internalType": "uint256",
          "name": "tokenId",
          "type": "uint256"
        }
      ],
      "name": "tokenURI",
      "outputs": [
        {
          "internalType": "string",
          "name": "",
          "type": "string"
        }
      ],
      "stateMutability": "view",
      "type": "function"
    },
    {
      "inputs": [
        {
          "internalType": "address",
          "name": "from",
          "type": "address"
        },
        {
          "internalType": "address",
          "name": "to",
          "type": "address"
        },
        {
          "internalType": "uint256",
          "name": "tokenId",
          "type": "uint256"
        }
      ],
      "name": "transferFrom",
      "outputs": [],
      "stateMutability": "nonpayable",
      "type": "function"
    }
  ],
  "bytecode": "0x60806040523480156200001157600080fd5b506040518060400160405280600c81526020017f44757374696e20546f6b656e00000000000000000000000000000000000000008152506040518060400160405280600581526020017f445443763200000000000000000000000000000000000000000000000000000081525081600090816200008f919062000324565b508060019081620000a1919062000324565b5050506200040b565b600081519050919050565b7f4e487b7100000000000000000000000000000000000000000000000000000000600052604160045260246000fd5b7f4e487b7100000000000000000000000000000000000000000000000000000000600052602260045260246000fd5b600060028204905060018216806200012c57607f821691505b602082108103620001425762000141620000e4565b5b50919050565b60008190508160005260206000209050919050565b60006020601f8301049050919050565b600082821b905092915050565b600060088302620001ac7fffffffffffffffffffffffffffffffffffffffffffffffffffffffffffffffff826200016d565b620001b886836200016d565b95508019841693508086168417925050509392505050565b6000819050919050565b6000819050919050565b600062000205620001ff620001f984620001d0565b620001da565b620001d0565b9050919050565b6000819050919050565b6200022183620001e4565b6200023962000230826200020c565b8484546200017a565b825550505050565b600090565b6200025062000241565b6200025d81848462000216565b505050565b5b8181101562000285576200027960008262000246565b60018101905062000263565b5050565b601f821115620002d4576200029e8162000148565b620002a9846200015d565b81016020851015620002b9578190505b620002d1620002c8856200015d565b83018262000262565b50505b505050565b600082821c905092915050565b6000620002f960001984600802620002d9565b1980831691505092915050565b6000620003148383620002e6565b9150826002028217905092915050565b6200032f82620000aa565b67ffffffffffffffff8111156200034b576200034a620000b5565b5b62000357825462000113565b6200036482828562000289565b600060209050601f8311600181146200039c576000841562000387578287015190505b62000393858262000306565b86555062000403565b601f198416620003ac8662000148565b60005b82811015620003d657848901518255600182019150602085019450602081019050620003af565b86831015620003f65784890151620003f2601f891682620002e6565b8355505b6001600288020188555050505b505050505050565b6123ee806200041b6000396000f3fe608060405234801561001057600080fd5b50600436106100f55760003560e01c80634be6512611610097578063a22cb46511610066578063a22cb46514610298578063b88d4fde146102b4578063c87b56dd146102d0578063e985e9c514610300576100f5565b80634be65126146101ea5780636352211e1461021a57806370a082311461024a57806395d89b411461027a576100f5565b8063095ea7b3116100d3578063095ea7b31461017857806323b872dd1461019457806342842e0e146101b05780634a60f620146101cc576100f5565b806301ffc9a7146100fa57806306fdde031461012a578063081812fc14610148575b600080fd5b610114600480360381019061010f9190611846565b610330565b604051610121919061188e565b60405180910390f35b610132610391565b60405161013f9190611939565b60405180910390f35b610162600480360381019061015d9190611991565b610423565b60405161016f91906119ff565b60405180910390f35b610192600480360381019061018d9190611a46565b61043f565b005b6101ae60048036038101906101a99190611a86565b610455565b005b6101ca60048036038101906101c59190611a86565b610557565b005b6101d4610577565b6040516101e19190611ae8565b60405180910390f35b61020460048036038101906101ff9190611c38565b61057d565b6040516102119190611ae8565b60405180910390f35b610234600480360381019061022f9190611991565b6105ba565b60405161024191906119ff565b60405180910390f35b610264600480360381019061025f9190611c94565b6105cc565b6040516102719190611ae8565b60405180910390f35b610282610686565b60405161028f9190611939565b60405180910390f35b6102b260048036038101906102ad9190611ced565b610718565b005b6102ce60048036038101906102c99190611dce565b61072e565b005b6102ea60048036038101906102e59190611991565b61074b565b6040516102f79190611939565b60405180910390f35b61031a60048036038101906103159190611e51565b61085e565b604051610327919061188e565b60405180910390f35b6000634906490660e01b7bffffffffffffffffffffffffffffffffffffffffffffffffffffffff1916827bffffffffffffffffffffffffffffffffffffffffffffffffffffffff1916148061038a5750610389826108f2565b5b9050919050565b6060600080546103a090611ec0565b80601f01602080910402602001604051908101604052809291908181526020018280546103cc90611ec0565b80156104195780601f106103ee57610100808354040283529160200191610419565b820191906000526020600020905b8154815290600101906020018083116103fc57829003601f168201915b5050505050905090565b600061042e826109d4565b5061043882610a5c565b9050919050565b610451828261044c610a99565b610aa1565b5050565b600073ffffffffffffffffffffffffffffffffffffffff168273ffffffffffffffffffffffffffffffffffffffff16036104c75760006040517f64a0ae920000000000000000000000000000000000000000000000000000000081526004016104be91906119ff565b60405180910390fd5b60006104db83836104d6610a99565b610ab3565b90508373ffffffffffffffffffffffffffffffffffffffff168173ffffffffffffffffffffffffffffffffffffffff1614610551578382826040517f64283d7b00000000000000000000000000000000000000000000000000000000815260040161054893929190611ef1565b60405180910390fd5b50505050565b6105728383836040518060200160405280600081525061072e565b505050565b60075481565b60006007600081548092919061059290611f57565b91905055506105a383600754610ccd565b6105af60075483610dc6565b600754905092915050565b60006105c5826109d4565b9050919050565b60008073ffffffffffffffffffffffffffffffffffffffff168273ffffffffffffffffffffffffffffffffffffffff160361063f5760006040517f89c62b6400000000000000000000000000000000000000000000000000000000815260040161063691906119ff565b60405180910390fd5b600360008373ffffffffffffffffffffffffffffffffffffffff1673ffffffffffffffffffffffffffffffffffffffff168152602001908152602001600020549050919050565b60606001805461069590611ec0565b80601f01602080910402602001604051908101604052809291908181526020018280546106c190611ec0565b801561070e5780601f106106e35761010080835404028352916020019161070e565b820191906000526020600020905b8154815290600101906020018083116106f157829003601f168201915b5050505050905090565b61072a610723610a99565b8383610e22565b5050565b610739848484610455565b61074584848484610f91565b50505050565b6060610756826109d4565b50600060066000848152602001908152602001600020805461077790611ec0565b80601f01602080910402602001604051908101604052809291908181526020018280546107a390611ec0565b80156107f05780601f106107c5576101008083540402835291602001916107f0565b820191906000526020600020905b8154815290600101906020018083116107d357829003601f168201915b505050505090506000610801611148565b90506000815103610816578192505050610859565b60008251111561084b578082604051602001610833929190611fdb565b60405160208183030381529060405292505050610859565b6108548461115f565b925050505b919050565b6000600560008473ffffffffffffffffffffffffffffffffffffffff1673ffffffffffffffffffffffffffffffffffffffff16815260200190815260200160002060008373ffffffffffffffffffffffffffffffffffffffff1673ffffffffffffffffffffffffffffffffffffffff16815260200190815260200160002060009054906101000a900460ff16905092915050565b60007f80ac58cd000000000000000000000000000000000000000000000000000000007bffffffffffffffffffffffffffffffffffffffffffffffffffffffff1916827bffffffffffffffffffffffffffffffffffffffffffffffffffffffff191614806109bd57507f5b5e139f000000000000000000000000000000000000000000000000000000007bffffffffffffffffffffffffffffffffffffffffffffffffffffffff1916827bffffffffffffffffffffffffffffffffffffffffffffffffffffffff1916145b806109cd57506109cc826111c8565b5b9050919050565b6000806109e083611232565b9050600073ffffffffffffffffffffffffffffffffffffffff168173ffffffffffffffffffffffffffffffffffffffff1603610a5357826040517f7e273289000000000000000000000000000000000000000000000000000000008152600401610a4a9190611ae8565b60405180910390fd5b80915050919050565b60006004600083815260200190815260200160002060009054906101000a900473ffffffffffffffffffffffffffffffffffffffff169050919050565b600033905090565b610aae838383600161126f565b505050565b600080610abf84611232565b9050600073ffffffffffffffffffffffffffffffffffffffff168373ffffffffffffffffffffffffffffffffffffffff1614610b0157610b00818486611434565b5b600073ffffffffffffffffffffffffffffffffffffffff168173ffffffffffffffffffffffffffffffffffffffff1614610b9257610b4360008560008061126f565b6001600360008373ffffffffffffffffffffffffffffffffffffffff1673ffffffffffffffffffffffffffffffffffffffff168152602001908152602001600020600082825403925050819055505b600073ffffffffffffffffffffffffffffffffffffffff168573ffffffffffffffffffffffffffffffffffffffff1614610c15576001600360008773ffffffffffffffffffffffffffffffffffffffff1673ffffffffffffffffffffffffffffffffffffffff168152602001908152602001600020600082825401925050819055505b846002600086815260200190815260200160002060006101000a81548173ffffffffffffffffffffffffffffffffffffffff021916908373ffffffffffffffffffffffffffffffffffffffff160217905550838573ffffffffffffffffffffffffffffffffffffffff168273ffffffffffffffffffffffffffffffffffffffff167fddf252ad1be2c89b69c2b068fc378daa952ba7f163c4a11628f55a4df523b3ef60405160405180910390a4809150509392505050565b600073ffffffffffffffffffffffffffffffffffffffff168273ffffffffffffffffffffffffffffffffffffffff1603610d3f5760006040517f64a0ae92000000000000000000000000000000000000000000000000000000008152600401610d3691906119ff565b60405180910390fd5b6000610d4d83836000610ab3565b9050600073ffffffffffffffffffffffffffffffffffffffff168173ffffffffffffffffffffffffffffffffffffffff1614610dc15760006040517f73c6ac6e000000000000000000000000000000000000000000000000000000008152600401610db891906119ff565b60405180910390fd5b505050565b80600660008481526020019081526020016000209081610de691906121ab565b507ff8e1a15aba9398e019f0b49df1a4fde98ee17ae345cb5f6b5e2c27f5033e8ce782604051610e169190611ae8565b60405180910390a15050565b600073ffffffffffffffffffffffffffffffffffffffff168273ffffffffffffffffffffffffffffffffffffffff1603610e9357816040517f5b08ba18000000000000000000000000000000000000000000000000000000008152600401610e8a91906119ff565b60405180910390fd5b80600560008573ffffffffffffffffffffffffffffffffffffffff1673ffffffffffffffffffffffffffffffffffffffff16815260200190815260200160002060008473ffffffffffffffffffffffffffffffffffffffff1673ffffffffffffffffffffffffffffffffffffffff16815260200190815260200160002060006101000a81548160ff0219169083151502179055508173ffffffffffffffffffffffffffffffffffffffff168373ffffffffffffffffffffffffffffffffffffffff167f17307eab39ab6107e8899845ad3d59bd9653f200f220920489ca2b5937696c3183604051610f84919061188e565b60405180910390a3505050565b60008373ffffffffffffffffffffffffffffffffffffffff163b1115611142578273ffffffffffffffffffffffffffffffffffffffff1663150b7a02610fd5610a99565b8685856040518563ffffffff1660e01b8152600401610ff794939291906122d2565b6020604051808303816000875af192505050801561103357506040513d601f19601f820116820180604052508101906110309190612333565b60015b6110b7573d8060008114611063576040519150601f19603f3d011682016040523d82523d6000602084013e611068565b606091505b5060008151036110af57836040517f64a0ae920000000000000000000000000000000000000000000000000000000081526004016110a691906119ff565b60405180910390fd5b805181602001fd5b63150b7a0260e01b7bffffffffffffffffffffffffffffffffffffffffffffffffffffffff1916817bffffffffffffffffffffffffffffffffffffffffffffffffffffffff19161461114057836040517f64a0ae9200000000000000000000000000000000000000000000000000000000815260040161113791906119ff565b60405180910390fd5b505b50505050565b606060405180602001604052806000815250905090565b606061116a826109d4565b506000611175611148565b9050600081511161119557604051806020016040528060008152506111c0565b8061119f846114f8565b6040516020016111b0929190611fdb565b6040516020818303038152906040525b915050919050565b60007f01ffc9a7000000000000000000000000000000000000000000000000000000007bffffffffffffffffffffffffffffffffffffffffffffffffffffffff1916827bffffffffffffffffffffffffffffffffffffffffffffffffffffffff1916149050919050565b60006002600083815260200190815260200160002060009054906101000a900473ffffffffffffffffffffffffffffffffffffffff169050919050565b80806112a85750600073ffffffffffffffffffffffffffffffffffffffff168273ffffffffffffffffffffffffffffffffffffffff1614155b156113dc5760006112b8846109d4565b9050600073ffffffffffffffffffffffffffffffffffffffff168373ffffffffffffffffffffffffffffffffffffffff161415801561132357508273ffffffffffffffffffffffffffffffffffffffff168173ffffffffffffffffffffffffffffffffffffffff1614155b80156113365750611334818461085e565b155b1561137857826040517fa9fbf51f00000000000000000000000000000000000000000000000000000000815260040161136f91906119ff565b60405180910390fd5b81156113da57838573ffffffffffffffffffffffffffffffffffffffff168273ffffffffffffffffffffffffffffffffffffffff167f8c5be1e5ebec7d5bd14f71427d1e84f3dd0314c0f7b2291e5b200ac8c7c3b92560405160405180910390a45b505b836004600085815260200190815260200160002060006101000a81548173ffffffffffffffffffffffffffffffffffffffff021916908373ffffffffffffffffffffffffffffffffffffffff16021790555050505050565b61143f8383836115c6565b6114f357600073ffffffffffffffffffffffffffffffffffffffff168373ffffffffffffffffffffffffffffffffffffffff16036114b457806040517f7e2732890000000000000000000000000000000000000000000000000000000081526004016114ab9190611ae8565b60405180910390fd5b81816040517f177e802f0000000000000000000000000000000000000000000000000000000081526004016114ea929190612360565b60405180910390fd5b505050565b60606000600161150784611687565b01905060008167ffffffffffffffff81111561152657611525611b0d565b5b6040519080825280601f01601f1916602001820160405280156115585781602001600182028036833780820191505090505b509050600082602001820190505b6001156115bb578080600190039150507f3031323334353637383961626364656600000000000000000000000000000000600a86061a8153600a85816115af576115ae612389565b5b04945060008503611566575b819350505050919050565b60008073ffffffffffffffffffffffffffffffffffffffff168373ffffffffffffffffffffffffffffffffffffffff161415801561167e57508273ffffffffffffffffffffffffffffffffffffffff168473ffffffffffffffffffffffffffffffffffffffff16148061163f575061163e848461085e565b5b8061167d57508273ffffffffffffffffffffffffffffffffffffffff1661166583610a5c565b73ffffffffffffffffffffffffffffffffffffffff16145b5b90509392505050565b600080600090507a184f03e93ff9f4daa797ed6e38ed64bf6a1f01000000000000000083106116e5577a184f03e93ff9f4daa797ed6e38ed64bf6a1f01000000000000000083816116db576116da612389565b5b0492506040810190505b6d04ee2d6d415b85acef81000000008310611722576d04ee2d6d415b85acef8100000000838161171857611717612389565b5b0492506020810190505b662386f26fc10000831061175157662386f26fc10000838161174757611746612389565b5b0492506010810190505b6305f5e100831061177a576305f5e10083816117705761176f612389565b5b0492506008810190505b612710831061179f57612710838161179557611794612389565b5b0492506004810190505b606483106117c257606483816117b8576117b7612389565b5b0492506002810190505b600a83106117d1576001810190505b80915050919050565b6000604051905090565b600080fd5b600080fd5b60007fffffffff0000000000000000000000000000000000000000000000000000000082169050919050565b611823816117ee565b811461182e57600080fd5b50565b6000813590506118408161181a565b92915050565b60006020828403121561185c5761185b6117e4565b5b600061186a84828501611831565b91505092915050565b60008115159050919050565b61188881611873565b82525050565b60006020820190506118a3600083018461187f565b92915050565b600081519050919050565b600082825260208201905092915050565b60005b838110156118e35780820151818401526020810190506118c8565b60008484015250505050565b6000601f19601f8301169050919050565b600061190b826118a9565b61191581856118b4565b93506119258185602086016118c5565b61192e816118ef565b840191505092915050565b600060208201905081810360008301526119538184611900565b905092915050565b6000819050919050565b61196e8161195b565b811461197957600080fd5b50565b60008135905061198b81611965565b92915050565b6000602082840312156119a7576119a66117e4565b5b60006119b58482850161197c565b91505092915050565b600073ffffffffffffffffffffffffffffffffffffffff82169050919050565b60006119e9826119be565b9050919050565b6119f9816119de565b82525050565b6000602082019050611a1460008301846119f0565b92915050565b611a23816119de565b8114611a2e57600080fd5b50565b600081359050611a4081611a1a565b92915050565b60008060408385031215611a5d57611a5c6117e4565b5b6000611a6b85828601611a31565b9250506020611a7c8582860161197c565b9150509250929050565b600080600060608486031215611a9f57611a9e6117e4565b5b6000611aad86828701611a31565b9350506020611abe86828701611a31565b9250506040611acf8682870161197c565b9150509250925092565b611ae28161195b565b82525050565b6000602082019050611afd6000830184611ad9565b92915050565b600080fd5b600080fd5b7f4e487b7100000000000000000000000000000000000000000000000000000000600052604160045260246000fd5b611b45826118ef565b810181811067ffffffffffffffff82111715611b6457611b63611b0d565b5b80604052505050565b6000611b776117da565b9050611b838282611b3c565b919050565b600067ffffffffffffffff821115611ba357611ba2611b0d565b5b611bac826118ef565b9050602081019050919050565b82818337600083830152505050565b6000611bdb611bd684611b88565b611b6d565b905082815260208101848484011115611bf757611bf6611b08565b5b611c02848285611bb9565b509392505050565b600082601f830112611c1f57611c1e611b03565b5b8135611c2f848260208601611bc8565b91505092915050565b60008060408385031215611c4f57611c4e6117e4565b5b6000611c5d85828601611a31565b925050602083013567ffffffffffffffff811115611c7e57611c7d6117e9565b5b611c8a85828601611c0a565b9150509250929050565b600060208284031215611caa57611ca96117e4565b5b6000611cb884828501611a31565b91505092915050565b611cca81611873565b8114611cd557600080fd5b50565b600081359050611ce781611cc1565b92915050565b60008060408385031215611d0457611d036117e4565b5b6000611d1285828601611a31565b9250506020611d2385828601611cd8565b9150509250929050565b600067ffffffffffffffff821115611d4857611d47611b0d565b5b611d51826118ef565b9050602081019050919050565b6000611d71611d6c84611d2d565b611b6d565b905082815260208101848484011115611d8d57611d8c611b08565b5b611d98848285611bb9565b509392505050565b600082601f830112611db557611db4611b03565b5b8135611dc5848260208601611d5e565b91505092915050565b60008060008060808587031215611de857611de76117e4565b5b6000611df687828801611a31565b9450506020611e0787828801611a31565b9350506040611e188782880161197c565b925050606085013567ffffffffffffffff811115611e3957611e386117e9565b5b611e4587828801611da0565b91505092959194509250565b60008060408385031215611e6857611e676117e4565b5b6000611e7685828601611a31565b9250506020611e8785828601611a31565b9150509250929050565b7f4e487b7100000000000000000000000000000000000000000000000000000000600052602260045260246000fd5b60006002820490506001821680611ed857607f821691505b602082108103611eeb57611eea611e91565b5b50919050565b6000606082019050611f0660008301866119f0565b611f136020830185611ad9565b611f2060408301846119f0565b949350505050565b7f4e487b7100000000000000000000000000000000000000000000000000000000600052601160045260246000fd5b6000611f628261195b565b91507fffffffffffffffffffffffffffffffffffffffffffffffffffffffffffffffff8203611f9457611f93611f28565b5b600182019050919050565b600081905092915050565b6000611fb5826118a9565b611fbf8185611f9f565b9350611fcf8185602086016118c5565b80840191505092915050565b6000611fe78285611faa565b9150611ff38284611faa565b91508190509392505050565b60008190508160005260206000209050919050565b60006020601f8301049050919050565b600082821b905092915050565b6000600883026120617fffffffffffffffffffffffffffffffffffffffffffffffffffffffffffffffff82612024565b61206b8683612024565b95508019841693508086168417925050509392505050565b6000819050919050565b60006120a86120a361209e8461195b565b612083565b61195b565b9050919050565b6000819050919050565b6120c28361208d565b6120d66120ce826120af565b848454612031565b825550505050565b600090565b6120eb6120de565b6120f68184846120b9565b505050565b5b8181101561211a5761210f6000826120e3565b6001810190506120fc565b5050565b601f82111561215f5761213081611fff565b61213984612014565b81016020851015612148578190505b61215c61215485612014565b8301826120fb565b50505b505050565b600082821c905092915050565b600061218260001984600802612164565b1980831691505092915050565b600061219b8383612171565b9150826002028217905092915050565b6121b4826118a9565b67ffffffffffffffff8111156121cd576121cc611b0d565b5b6121d78254611ec0565b6121e282828561211e565b600060209050601f8311600181146122155760008415612203578287015190505b61220d858261218f565b865550612275565b601f19841661222386611fff565b60005b8281101561224b57848901518255600182019150602085019450602081019050612226565b868310156122685784890151612264601f891682612171565b8355505b6001600288020188555050505b505050505050565b600081519050919050565b600082825260208201905092915050565b60006122a48261227d565b6122ae8185612288565b93506122be8185602086016118c5565b6122c7816118ef565b840191505092915050565b60006080820190506122e760008301876119f0565b6122f460208301866119f0565b6123016040830185611ad9565b81810360608301526123138184612299565b905095945050505050565b60008151905061232d8161181a565b92915050565b600060208284031215612349576123486117e4565b5b60006123578482850161231e565b91505092915050565b600060408201905061237560008301856119f0565b6123826020830184611ad9565b9392505050565b7f4e487b7100000000000000000000000000000000000000000000000000000000600052601260045260246000fdfea2646970667358221220d0f08f672562c5b5d4ca70df65d06be66215aa8706c8200c6ffe75b55d411d8764736f6c63430008180033",
  "linkReferences": {},
  "deployedLinkReferences": {}
}