{
  "_format": "hh-sol-artifact-1",
  "contractName": "Marketplace",
  "sourceName": "Contracts/Marketplace.sol",
  "abi": [
    {
      "inputs": [
        {
          "internalType": "uint256",
          "name": "_feePercent",
          "type": "uint256"
        }
      ],
      "stateMutability": "nonpayable",
      "type": "constructor"
    },
    {
      "inputs": [],
      "name": "ReentrancyGuardReentrantCall",
      "type": "error"
    },
    {
      "anonymous": false,
      "inputs": [
        {
          "indexed": false,
          "internalType": "uint256",
          "name": "itemId",
          "type": "uint256"
        },
        {
          "indexed": true,
          "internalType": "address",
          "name": "nft",
          "type": "address"
        },
        {
          "indexed": false,
          "internalType": "uint256",
          "name": "tokenId",
          "type": "uint256"
        },
        {
          "indexed": false,
          "internalType": "uint256",
          "name": "price",
          "type": "uint256"
        },
        {
          "indexed": true,
          "internalType": "address",
          "name": "seller",
          "type": "address"
        },
        {
          "indexed": true,
          "internalType": "address",
          "name": "buyer",
          "type": "address"
        }
      ],
      "name": "Bought",
      "type": "event"
    },
    {
      "anonymous": false,
      "inputs": [
        {
          "indexed": false,
          "internalType": "uint256",
          "name": "itemId",
          "type": "uint256"
        },
        {
          "indexed": true,
          "internalType": "address",
          "name": "nft",
          "type": "address"
        },
        {
          "indexed": false,
          "internalType": "uint256",
          "name": "tokenId",
          "type": "uint256"
        },
        {
          "indexed": false,
          "internalType": "uint256",
          "name": "price",
          "type": "uint256"
        },
        {
          "indexed": true,
          "internalType": "address",
          "name": "seller",
          "type": "address"
        }
      ],
      "name": "Offered",
      "type": "event"
    },
    {
      "inputs": [],
      "name": "feeAccount",
      "outputs": [
        {
          "internalType": "address payable",
          "name": "",
          "type": "address"
        }
      ],
      "stateMutability": "view",
      "type": "function"
    },
    {
      "inputs": [],
      "name": "feePercent",
      "outputs": [
        {
          "internalType": "uint256",
          "name": "",
          "type": "uint256"
        }
      ],
      "stateMutability": "view",
      "type": "function"
    },
    {
      "inputs": [
        {
          "internalType": "uint256",
          "name": "_itemId",
          "type": "uint256"
        }
      ],
      "name": "getTotalPrice",
      "outputs": [
        {
          "internalType": "uint256",
          "name": "",
          "type": "uint256"
        }
      ],
      "stateMutability": "view",
      "type": "function"
    },
    {
      "inputs": [],
      "name": "itemCount",
      "outputs": [
        {
          "internalType": "uint256",
          "name": "",
          "type": "uint256"
        }
      ],
      "stateMutability": "view",
      "type": "function"
    },
    {
      "inputs": [
        {
          "internalType": "uint256",
          "name": "",
          "type": "uint256"
        }
      ],
      "name": "items",
      "outputs": [
        {
          "internalType": "uint256",
          "name": "itemId",
          "type": "uint256"
        },
        {
          "internalType": "contract IERC721",
          "name": "nft",
          "type": "address"
        },
        {
          "internalType": "uint256",
          "name": "tokenId",
          "type": "uint256"
        },
        {
          "internalType": "uint256",
          "name": "price",
          "type": "uint256"
        },
        {
          "internalType": "address payable",
          "name": "seller",
          "type": "address"
        },
        {
          "internalType": "bool",
          "name": "sold",
          "type": "bool"
        }
      ],
      "stateMutability": "view",
      "type": "function"
    },
    {
      "inputs": [
        {
          "internalType": "contract IERC721",
          "name": "_nft",
          "type": "address"
        },
        {
          "internalType": "uint256",
          "name": "_tokenId",
          "type": "uint256"
        },
        {
          "internalType": "uint256",
          "name": "_price",
          "type": "uint256"
        }
      ],
      "name": "makeNewItem",
      "outputs": [],
      "stateMutability": "nonpayable",
      "type": "function"
    },
    {
      "inputs": [
        {
          "internalType": "uint256",
          "name": "_itemId",
          "type": "uint256"
        }
      ],
      "name": "purchaseItem",
      "outputs": [],
      "stateMutability": "payable",
      "type": "function"
    }
  ],
  "bytecode": "0x60c060405234801561001057600080fd5b506040516110f83803806110f8833981810160405281019061003291906100b7565b60016000819055503373ffffffffffffffffffffffffffffffffffffffff1660808173ffffffffffffffffffffffffffffffffffffffff16815250508060a08181525050506100e4565b600080fd5b6000819050919050565b61009481610081565b811461009f57600080fd5b50565b6000815190506100b18161008b565b92915050565b6000602082840312156100cd576100cc61007c565b5b60006100db848285016100a2565b91505092915050565b60805160a051610fe1610117600039600081816101e601526102970152600081816101bc01526104770152610fe16000f3fe6080604052600436106100705760003560e01c8063bfb231d21161004e578063bfb231d2146100f6578063ca7dd37514610138578063d38ea5bf14610175578063e8fd98f31461019157610070565b806365e17c9d146100755780636bfb0d01146100a05780637fd6f15c146100cb575b600080fd5b34801561008157600080fd5b5061008a6101ba565b604051610097919061099b565b60405180910390f35b3480156100ac57600080fd5b506100b56101de565b6040516100c291906109cf565b60405180910390f35b3480156100d757600080fd5b506100e06101e4565b6040516100ed91906109cf565b60405180910390f35b34801561010257600080fd5b5061011d60048036038101906101189190610a1b565b610208565b60405161012f96959493929190610ac2565b60405180910390f35b34801561014457600080fd5b5061015f600480360381019061015a9190610a1b565b610291565b60405161016c91906109cf565b60405180910390f35b61018f600480360381019061018a9190610a1b565b6102f4565b005b34801561019d57600080fd5b506101b860048036038101906101b39190610b73565b61067c565b005b7f000000000000000000000000000000000000000000000000000000000000000081565b60015481565b7f000000000000000000000000000000000000000000000000000000000000000081565b60026020528060005260406000206000915090508060000154908060010160009054906101000a900473ffffffffffffffffffffffffffffffffffffffff16908060020154908060030154908060040160009054906101000a900473ffffffffffffffffffffffffffffffffffffffff16908060040160149054906101000a900460ff16905086565b600060647f000000000000000000000000000000000000000000000000000000000000000060646102c29190610bf5565b60026000858152602001908152602001600020600301546102e39190610c29565b6102ed9190610c9a565b9050919050565b6102fc61090a565b600061030782610291565b9050600060026000848152602001908152602001600020905060008311801561033257506001548311155b610371576040517f08c379a000000000000000000000000000000000000000000000000000000000815260040161036890610d28565b60405180910390fd5b813410156103b4576040517f08c379a00000000000000000000000000000000000000000000000000000000081526004016103ab90610dba565b60405180910390fd5b8060040160149054906101000a900460ff1615610406576040517f08c379a00000000000000000000000000000000000000000000000000000000081526004016103fd90610e26565b60405180910390fd5b8060040160009054906101000a900473ffffffffffffffffffffffffffffffffffffffff1673ffffffffffffffffffffffffffffffffffffffff166108fc82600301549081150290604051600060405180830381858888f19350505050158015610474573d6000803e3d6000fd5b507f000000000000000000000000000000000000000000000000000000000000000073ffffffffffffffffffffffffffffffffffffffff166108fc8260030154846104bf9190610e46565b9081150290604051600060405180830381858888f193505050501580156104ea573d6000803e3d6000fd5b5060018160040160146101000a81548160ff0219169083151502179055508060010160009054906101000a900473ffffffffffffffffffffffffffffffffffffffff1673ffffffffffffffffffffffffffffffffffffffff166323b872dd303384600201546040518463ffffffff1660e01b815260040161056d93929190610e89565b600060405180830381600087803b15801561058757600080fd5b505af115801561059b573d6000803e3d6000fd5b505050503373ffffffffffffffffffffffffffffffffffffffff168160040160009054906101000a900473ffffffffffffffffffffffffffffffffffffffff1673ffffffffffffffffffffffffffffffffffffffff168260010160009054906101000a900473ffffffffffffffffffffffffffffffffffffffff1673ffffffffffffffffffffffffffffffffffffffff167f8b4c9c8a607d67b321582dd8461041b1dc2ceeca70c8b7f37f8e02095cf2e76d868560020154866003015460405161066793929190610ec0565b60405180910390a45050610679610950565b50565b61068461090a565b80600081116106c8576040517f08c379a00000000000000000000000000000000000000000000000000000000081526004016106bf90610f43565b60405180910390fd5b600160008154809291906106db90610f63565b91905055508373ffffffffffffffffffffffffffffffffffffffff166323b872dd3330866040518463ffffffff1660e01b815260040161071d93929190610e89565b600060405180830381600087803b15801561073757600080fd5b505af115801561074b573d6000803e3d6000fd5b505050506040518060c0016040528060015481526020018573ffffffffffffffffffffffffffffffffffffffff1681526020018481526020018381526020013373ffffffffffffffffffffffffffffffffffffffff168152602001600015158152506002600060015481526020019081526020016000206000820151816000015560208201518160010160006101000a81548173ffffffffffffffffffffffffffffffffffffffff021916908373ffffffffffffffffffffffffffffffffffffffff160217905550604082015181600201556060820151816003015560808201518160040160006101000a81548173ffffffffffffffffffffffffffffffffffffffff021916908373ffffffffffffffffffffffffffffffffffffffff16021790555060a08201518160040160146101000a81548160ff0219169083151502179055509050503373ffffffffffffffffffffffffffffffffffffffff168473ffffffffffffffffffffffffffffffffffffffff167f655a0cf9c8db81512be9a76dc1c5ae5380b8816ce6ad659cd61b715e2999d59a60015486866040516108f493929190610ec0565b60405180910390a350610905610950565b505050565b600260005403610946576040517f3ee5aeb500000000000000000000000000000000000000000000000000000000815260040160405180910390fd5b6002600081905550565b6001600081905550565b600073ffffffffffffffffffffffffffffffffffffffff82169050919050565b60006109858261095a565b9050919050565b6109958161097a565b82525050565b60006020820190506109b0600083018461098c565b92915050565b6000819050919050565b6109c9816109b6565b82525050565b60006020820190506109e460008301846109c0565b92915050565b600080fd5b6109f8816109b6565b8114610a0357600080fd5b50565b600081359050610a15816109ef565b92915050565b600060208284031215610a3157610a306109ea565b5b6000610a3f84828501610a06565b91505092915050565b6000819050919050565b6000610a6d610a68610a638461095a565b610a48565b61095a565b9050919050565b6000610a7f82610a52565b9050919050565b6000610a9182610a74565b9050919050565b610aa181610a86565b82525050565b60008115159050919050565b610abc81610aa7565b82525050565b600060c082019050610ad760008301896109c0565b610ae46020830188610a98565b610af160408301876109c0565b610afe60608301866109c0565b610b0b608083018561098c565b610b1860a0830184610ab3565b979650505050505050565b6000610b2e8261095a565b9050919050565b6000610b4082610b23565b9050919050565b610b5081610b35565b8114610b5b57600080fd5b50565b600081359050610b6d81610b47565b92915050565b600080600060608486031215610b8c57610b8b6109ea565b5b6000610b9a86828701610b5e565b9350506020610bab86828701610a06565b9250506040610bbc86828701610a06565b9150509250925092565b7f4e487b7100000000000000000000000000000000000000000000000000000000600052601160045260246000fd5b6000610c00826109b6565b9150610c0b836109b6565b9250828201905080821115610c2357610c22610bc6565b5b92915050565b6000610c34826109b6565b9150610c3f836109b6565b9250828202610c4d816109b6565b91508282048414831517610c6457610c63610bc6565b5b5092915050565b7f4e487b7100000000000000000000000000000000000000000000000000000000600052601260045260246000fd5b6000610ca5826109b6565b9150610cb0836109b6565b925082610cc057610cbf610c6b565b5b828204905092915050565b600082825260208201905092915050565b7f4974656d20646f65736e27742065786973740000000000000000000000000000600082015250565b6000610d12601283610ccb565b9150610d1d82610cdc565b602082019050919050565b60006020820190508181036000830152610d4181610d05565b9050919050565b7f4e6f7420656e6f75676820657468657220746f20636f766572206974656d207060008201527f7269636520616e64206d61726b65742066656500000000000000000000000000602082015250565b6000610da4603383610ccb565b9150610daf82610d48565b604082019050919050565b60006020820190508181036000830152610dd381610d97565b9050919050565b7f4974656d20616c726561647920736f6c64000000000000000000000000000000600082015250565b6000610e10601183610ccb565b9150610e1b82610dda565b602082019050919050565b60006020820190508181036000830152610e3f81610e03565b9050919050565b6000610e51826109b6565b9150610e5c836109b6565b9250828203905081811115610e7457610e73610bc6565b5b92915050565b610e8381610b23565b82525050565b6000606082019050610e9e6000830186610e7a565b610eab6020830185610e7a565b610eb860408301846109c0565b949350505050565b6000606082019050610ed560008301866109c0565b610ee260208301856109c0565b610eef60408301846109c0565b949350505050565b7f5072696365206d7573742062652067726561746572207468616e207a65726f00600082015250565b6000610f2d601f83610ccb565b9150610f3882610ef7565b602082019050919050565b60006020820190508181036000830152610f5c81610f20565b9050919050565b6000610f6e826109b6565b91507fffffffffffffffffffffffffffffffffffffffffffffffffffffffffffffffff8203610fa057610f9f610bc6565b5b60018201905091905056fea2646970667358221220284a8a1b29267286e7a6eb56ba41625110b29220df6b2af168b58cb2e21f3fee64736f6c63430008180033",
  "linkReferences": {},
  "deployedLinkReferences": {}
}