{
  "_format": "hh-sol-artifact-1",
  "contractName": "Marketplace",
  "sourceName": "contracts/Marketplace.sol",
  "abi": [
    {
      "inputs": [
        {
          "internalType": "uint256",
          "name": "_feePercent",
          "type": "uint256"
        }
      ],
      "stateMutability": "nonpayable",
      "type": "constructor"
    },
    {
      "inputs": [],
      "name": "ReentrancyGuardReentrantCall",
      "type": "error"
    },
    {
      "anonymous": false,
      "inputs": [
        {
          "indexed": false,
          "internalType": "uint256",
          "name": "itemId",
          "type": "uint256"
        },
        {
          "indexed": true,
          "internalType": "address",
          "name": "nft",
          "type": "address"
        },
        {
          "indexed": false,
          "internalType": "uint256",
          "name": "tokenId",
          "type": "uint256"
        },
        {
          "indexed": false,
          "internalType": "uint256",
          "name": "price",
          "type": "uint256"
        },
        {
          "indexed": true,
          "internalType": "address",
          "name": "seller",
          "type": "address"
        },
        {
          "indexed": true,
          "internalType": "address",
          "name": "buyer",
          "type": "address"
        }
      ],
      "name": "Bought",
      "type": "event"
    },
    {
      "anonymous": false,
      "inputs": [
        {
          "indexed": false,
          "internalType": "uint256",
          "name": "itemId",
          "type": "uint256"
        },
        {
          "indexed": true,
          "internalType": "address",
          "name": "nft",
          "type": "address"
        },
        {
          "indexed": false,
          "internalType": "uint256",
          "name": "tokenId",
          "type": "uint256"
        },
        {
          "indexed": false,
          "internalType": "uint256",
          "name": "price",
          "type": "uint256"
        },
        {
          "indexed": true,
          "internalType": "address",
          "name": "seller",
          "type": "address"
        }
      ],
      "name": "Offered",
      "type": "event"
    },
    {
      "inputs": [],
      "name": "feeAccount",
      "outputs": [
        {
          "internalType": "address payable",
          "name": "",
          "type": "address"
        }
      ],
      "stateMutability": "view",
      "type": "function"
    },
    {
      "inputs": [],
      "name": "feePercent",
      "outputs": [
        {
          "internalType": "uint256",
          "name": "",
          "type": "uint256"
        }
      ],
      "stateMutability": "view",
      "type": "function"
    },
    {
      "inputs": [
        {
          "internalType": "uint256",
          "name": "_itemId",
          "type": "uint256"
        }
      ],
      "name": "getTotalPrice",
      "outputs": [
        {
          "internalType": "uint256",
          "name": "",
          "type": "uint256"
        }
      ],
      "stateMutability": "view",
      "type": "function"
    },
    {
      "inputs": [],
      "name": "itemCount",
      "outputs": [
        {
          "internalType": "uint256",
          "name": "",
          "type": "uint256"
        }
      ],
      "stateMutability": "view",
      "type": "function"
    },
    {
      "inputs": [
        {
          "internalType": "uint256",
          "name": "",
          "type": "uint256"
        }
      ],
      "name": "items",
      "outputs": [
        {
          "internalType": "uint256",
          "name": "itemId",
          "type": "uint256"
        },
        {
          "internalType": "contract IERC721",
          "name": "nft",
          "type": "address"
        },
        {
          "internalType": "uint256",
          "name": "tokenId",
          "type": "uint256"
        },
        {
          "internalType": "uint256",
          "name": "price",
          "type": "uint256"
        },
        {
          "internalType": "address payable",
          "name": "seller",
          "type": "address"
        },
        {
          "internalType": "bool",
          "name": "sold",
          "type": "bool"
        }
      ],
      "stateMutability": "view",
      "type": "function"
    },
    {
      "inputs": [
        {
          "internalType": "contract IERC721",
          "name": "_nft",
          "type": "address"
        },
        {
          "internalType": "uint256",
          "name": "_tokenId",
          "type": "uint256"
        },
        {
          "internalType": "uint256",
          "name": "_price",
          "type": "uint256"
        }
      ],
      "name": "makeNewItem",
      "outputs": [],
      "stateMutability": "nonpayable",
      "type": "function"
    },
    {
      "inputs": [
        {
          "internalType": "uint256",
          "name": "_itemId",
          "type": "uint256"
        }
      ],
      "name": "purchaseItem",
      "outputs": [],
      "stateMutability": "payable",
      "type": "function"
    }
  ],
  "bytecode": "0x60c060405234801561001057600080fd5b506040516110ea3803806110ea833981810160405281019061003291906100b7565b60016000819055503373ffffffffffffffffffffffffffffffffffffffff1660808173ffffffffffffffffffffffffffffffffffffffff16815250508060a08181525050506100e4565b600080fd5b6000819050919050565b61009481610081565b811461009f57600080fd5b50565b6000815190506100b18161008b565b92915050565b6000602082840312156100cd576100cc61007c565b5b60006100db848285016100a2565b91505092915050565b60805160a051610fd3610117600039600081816101e601526102970152600081816101bc01526104690152610fd36000f3fe6080604052600436106100705760003560e01c8063bfb231d21161004e578063bfb231d2146100f6578063ca7dd37514610138578063d38ea5bf14610175578063e8fd98f31461019157610070565b806365e17c9d146100755780636bfb0d01146100a05780637fd6f15c146100cb575b600080fd5b34801561008157600080fd5b5061008a6101ba565b604051610097919061098d565b60405180910390f35b3480156100ac57600080fd5b506100b56101de565b6040516100c291906109c1565b60405180910390f35b3480156100d757600080fd5b506100e06101e4565b6040516100ed91906109c1565b60405180910390f35b34801561010257600080fd5b5061011d60048036038101906101189190610a0d565b610208565b60405161012f96959493929190610ab4565b60405180910390f35b34801561014457600080fd5b5061015f600480360381019061015a9190610a0d565b610291565b60405161016c91906109c1565b60405180910390f35b61018f600480360381019061018a9190610a0d565b6102f4565b005b34801561019d57600080fd5b506101b860048036038101906101b39190610b65565b61066e565b005b7f000000000000000000000000000000000000000000000000000000000000000081565b60015481565b7f000000000000000000000000000000000000000000000000000000000000000081565b60026020528060005260406000206000915090508060000154908060010160009054906101000a900473ffffffffffffffffffffffffffffffffffffffff16908060020154908060030154908060040160009054906101000a900473ffffffffffffffffffffffffffffffffffffffff16908060040160149054906101000a900460ff16905086565b600060647f000000000000000000000000000000000000000000000000000000000000000060646102c29190610be7565b60026000858152602001908152602001600020600301546102e39190610c1b565b6102ed9190610c8c565b9050919050565b6102fc6108fc565b600061030782610291565b9050600060026000848152602001908152602001600020905060008311610363576040517f08c379a000000000000000000000000000000000000000000000000000000000815260040161035a90610d1a565b60405180910390fd5b813410156103a6576040517f08c379a000000000000000000000000000000000000000000000000000000000815260040161039d90610dac565b60405180910390fd5b8060040160149054906101000a900460ff16156103f8576040517f08c379a00000000000000000000000000000000000000000000000000000000081526004016103ef90610e18565b60405180910390fd5b8060040160009054906101000a900473ffffffffffffffffffffffffffffffffffffffff1673ffffffffffffffffffffffffffffffffffffffff166108fc82600301549081150290604051600060405180830381858888f19350505050158015610466573d6000803e3d6000fd5b507f000000000000000000000000000000000000000000000000000000000000000073ffffffffffffffffffffffffffffffffffffffff166108fc8260030154846104b19190610e38565b9081150290604051600060405180830381858888f193505050501580156104dc573d6000803e3d6000fd5b5060018160040160146101000a81548160ff0219169083151502179055508060010160009054906101000a900473ffffffffffffffffffffffffffffffffffffffff1673ffffffffffffffffffffffffffffffffffffffff166323b872dd303384600201546040518463ffffffff1660e01b815260040161055f93929190610e7b565b600060405180830381600087803b15801561057957600080fd5b505af115801561058d573d6000803e3d6000fd5b505050503373ffffffffffffffffffffffffffffffffffffffff168160040160009054906101000a900473ffffffffffffffffffffffffffffffffffffffff1673ffffffffffffffffffffffffffffffffffffffff168260010160009054906101000a900473ffffffffffffffffffffffffffffffffffffffff1673ffffffffffffffffffffffffffffffffffffffff167f8b4c9c8a607d67b321582dd8461041b1dc2ceeca70c8b7f37f8e02095cf2e76d868560020154866003015460405161065993929190610eb2565b60405180910390a4505061066b610942565b50565b6106766108fc565b80600081116106ba576040517f08c379a00000000000000000000000000000000000000000000000000000000081526004016106b190610f35565b60405180910390fd5b600160008154809291906106cd90610f55565b91905055508373ffffffffffffffffffffffffffffffffffffffff166323b872dd3330866040518463ffffffff1660e01b815260040161070f93929190610e7b565b600060405180830381600087803b15801561072957600080fd5b505af115801561073d573d6000803e3d6000fd5b505050506040518060c0016040528060015481526020018573ffffffffffffffffffffffffffffffffffffffff1681526020018481526020018381526020013373ffffffffffffffffffffffffffffffffffffffff168152602001600015158152506002600060015481526020019081526020016000206000820151816000015560208201518160010160006101000a81548173ffffffffffffffffffffffffffffffffffffffff021916908373ffffffffffffffffffffffffffffffffffffffff160217905550604082015181600201556060820151816003015560808201518160040160006101000a81548173ffffffffffffffffffffffffffffffffffffffff021916908373ffffffffffffffffffffffffffffffffffffffff16021790555060a08201518160040160146101000a81548160ff0219169083151502179055509050503373ffffffffffffffffffffffffffffffffffffffff168473ffffffffffffffffffffffffffffffffffffffff167f655a0cf9c8db81512be9a76dc1c5ae5380b8816ce6ad659cd61b715e2999d59a60015486866040516108e693929190610eb2565b60405180910390a3506108f7610942565b505050565b600260005403610938576040517f3ee5aeb500000000000000000000000000000000000000000000000000000000815260040160405180910390fd5b6002600081905550565b6001600081905550565b600073ffffffffffffffffffffffffffffffffffffffff82169050919050565b60006109778261094c565b9050919050565b6109878161096c565b82525050565b60006020820190506109a2600083018461097e565b92915050565b6000819050919050565b6109bb816109a8565b82525050565b60006020820190506109d660008301846109b2565b92915050565b600080fd5b6109ea816109a8565b81146109f557600080fd5b50565b600081359050610a07816109e1565b92915050565b600060208284031215610a2357610a226109dc565b5b6000610a31848285016109f8565b91505092915050565b6000819050919050565b6000610a5f610a5a610a558461094c565b610a3a565b61094c565b9050919050565b6000610a7182610a44565b9050919050565b6000610a8382610a66565b9050919050565b610a9381610a78565b82525050565b60008115159050919050565b610aae81610a99565b82525050565b600060c082019050610ac960008301896109b2565b610ad66020830188610a8a565b610ae360408301876109b2565b610af060608301866109b2565b610afd608083018561097e565b610b0a60a0830184610aa5565b979650505050505050565b6000610b208261094c565b9050919050565b6000610b3282610b15565b9050919050565b610b4281610b27565b8114610b4d57600080fd5b50565b600081359050610b5f81610b39565b92915050565b600080600060608486031215610b7e57610b7d6109dc565b5b6000610b8c86828701610b50565b9350506020610b9d868287016109f8565b9250506040610bae868287016109f8565b9150509250925092565b7f4e487b7100000000000000000000000000000000000000000000000000000000600052601160045260246000fd5b6000610bf2826109a8565b9150610bfd836109a8565b9250828201905080821115610c1557610c14610bb8565b5b92915050565b6000610c26826109a8565b9150610c31836109a8565b9250828202610c3f816109a8565b91508282048414831517610c5657610c55610bb8565b5b5092915050565b7f4e487b7100000000000000000000000000000000000000000000000000000000600052601260045260246000fd5b6000610c97826109a8565b9150610ca2836109a8565b925082610cb257610cb1610c5d565b5b828204905092915050565b600082825260208201905092915050565b7f4974656d20646f65736e27742065786973740000000000000000000000000000600082015250565b6000610d04601283610cbd565b9150610d0f82610cce565b602082019050919050565b60006020820190508181036000830152610d3381610cf7565b9050919050565b7f4e6f7420656e6f75676820657468657220746f20636f766572206974656d207060008201527f7269636520616e64206d61726b65742066656500000000000000000000000000602082015250565b6000610d96603383610cbd565b9150610da182610d3a565b604082019050919050565b60006020820190508181036000830152610dc581610d89565b9050919050565b7f4974656d20616c726561647920736f6c64000000000000000000000000000000600082015250565b6000610e02601183610cbd565b9150610e0d82610dcc565b602082019050919050565b60006020820190508181036000830152610e3181610df5565b9050919050565b6000610e43826109a8565b9150610e4e836109a8565b9250828203905081811115610e6657610e65610bb8565b5b92915050565b610e7581610b15565b82525050565b6000606082019050610e906000830186610e6c565b610e9d6020830185610e6c565b610eaa60408301846109b2565b949350505050565b6000606082019050610ec760008301866109b2565b610ed460208301856109b2565b610ee160408301846109b2565b949350505050565b7f5072696365206d7573742062652067726561746572207468616e207a65726f00600082015250565b6000610f1f601f83610cbd565b9150610f2a82610ee9565b602082019050919050565b60006020820190508181036000830152610f4e81610f12565b9050919050565b6000610f60826109a8565b91507fffffffffffffffffffffffffffffffffffffffffffffffffffffffffffffffff8203610f9257610f91610bb8565b5b60018201905091905056fea2646970667358221220093afb2ce0dbf058fb0072b0b216293af5cab6abb320eb718d5cbb2eddf03f8764736f6c63430008180033",
  "linkReferences": {},
  "deployedLinkReferences": {}
}